{
  "_format": "hh3-artifact-1",
  "contractName": "TradeEscrowVault",
  "sourceName": "contracts/TradeEscrowVault.sol",
  "abi": [
    {
      "inputs": [
        {
          "internalType": "address",
          "name": "_accessControl",
          "type": "address"
        }
      ],
      "stateMutability": "nonpayable",
      "type": "constructor"
    },
    {
      "anonymous": false,
      "inputs": [
        {
          "indexed": true,
          "internalType": "bytes32",
          "name": "ref",
          "type": "bytes32"
        },
        {
          "indexed": true,
          "internalType": "address",
          "name": "caller",
          "type": "address"
        }
      ],
      "name": "AppealCreated",
      "type": "event"
    },
    {
      "anonymous": false,
      "inputs": [
        {
          "indexed": true,
          "internalType": "bytes32",
          "name": "ref",
          "type": "bytes32"
        },
        {
          "indexed": false,
          "internalType": "bool",
          "name": "released",
          "type": "bool"
        }
      ],
      "name": "AppealResolved",
      "type": "event"
    },
    {
      "anonymous": false,
      "inputs": [
        {
          "indexed": true,
          "internalType": "address",
          "name": "user",
          "type": "address"
        },
        {
          "indexed": false,
          "internalType": "bool",
          "name": "status",
          "type": "bool"
        }
      ],
      "name": "Blacklisted",
      "type": "event"
    },
    {
      "anonymous": false,
      "inputs": [
        {
          "indexed": false,
          "internalType": "string",
          "name": "stage",
          "type": "string"
        },
        {
          "indexed": false,
          "internalType": "bytes32",
          "name": "ref",
          "type": "bytes32"
        },
        {
          "indexed": false,
          "internalType": "address",
          "name": "creator",
          "type": "address"
        },
        {
          "indexed": false,
          "internalType": "address",
          "name": "counterparty",
          "type": "address"
        },
        {
          "indexed": false,
          "internalType": "address",
          "name": "token",
          "type": "address"
        },
        {
          "indexed": false,
          "internalType": "bool",
          "name": "isBuy",
          "type": "bool"
        },
        {
          "indexed": false,
          "internalType": "uint256",
          "name": "tokenAmount",
          "type": "uint256"
        },
        {
          "indexed": false,
          "internalType": "uint256",
          "name": "fiatAmount",
          "type": "uint256"
        },
        {
          "indexed": false,
          "internalType": "uint256",
          "name": "fiatToTokenRate",
          "type": "uint256"
        }
      ],
      "name": "Debug",
      "type": "event"
    },
    {
      "anonymous": false,
      "inputs": [
        {
          "indexed": false,
          "internalType": "string",
          "name": "info",
          "type": "string"
        },
        {
          "indexed": false,
          "internalType": "address",
          "name": "token",
          "type": "address"
        },
        {
          "indexed": false,
          "internalType": "uint256",
          "name": "balance",
          "type": "uint256"
        }
      ],
      "name": "DebugBalance",
      "type": "event"
    },
    {
      "anonymous": false,
      "inputs": [
        {
          "indexed": false,
          "internalType": "string",
          "name": "info",
          "type": "string"
        }
      ],
      "name": "DebugMessage",
      "type": "event"
    },
    {
      "anonymous": false,
      "inputs": [
        {
          "indexed": false,
          "internalType": "string",
          "name": "info",
          "type": "string"
        },
        {
          "indexed": false,
          "internalType": "address",
          "name": "token",
          "type": "address"
        },
        {
          "indexed": false,
          "internalType": "address",
          "name": "to",
          "type": "address"
        },
        {
          "indexed": false,
          "internalType": "uint256",
          "name": "amount",
          "type": "uint256"
        }
      ],
      "name": "DebugTransfer",
      "type": "event"
    },
    {
      "anonymous": false,
      "inputs": [
        {
          "indexed": false,
          "internalType": "string",
          "name": "info",
          "type": "string"
        },
        {
          "indexed": false,
          "internalType": "string",
          "name": "reason",
          "type": "string"
        }
      ],
      "name": "DebugTransferFail",
      "type": "event"
    },
    {
      "anonymous": false,
      "inputs": [
        {
          "indexed": false,
          "internalType": "string",
          "name": "info",
          "type": "string"
        },
        {
          "indexed": false,
          "internalType": "bytes",
          "name": "data",
          "type": "bytes"
        }
      ],
      "name": "DebugTransferFailBytes",
      "type": "event"
    },
    {
      "anonymous": false,
      "inputs": [
        {
          "indexed": true,
          "internalType": "bytes32",
          "name": "ref",
          "type": "bytes32"
        }
      ],
      "name": "OfferCancelled",
      "type": "event"
    },
    {
      "anonymous": false,
      "inputs": [
        {
          "indexed": true,
          "internalType": "bytes32",
          "name": "ref",
          "type": "bytes32"
        },
        {
          "indexed": true,
          "internalType": "address",
          "name": "creator",
          "type": "address"
        },
        {
          "indexed": true,
          "internalType": "address",
          "name": "counterparty",
          "type": "address"
        },
        {
          "indexed": false,
          "internalType": "uint256",
          "name": "tokenAmount",
          "type": "uint256"
        },
        {
          "indexed": false,
          "internalType": "address",
          "name": "token",
          "type": "address"
        },
        {
          "indexed": false,
          "internalType": "bool",
          "name": "isBuy",
          "type": "bool"
        },
        {
          "indexed": false,
          "internalType": "uint32",
          "name": "expiry",
          "type": "uint32"
        },
        {
          "indexed": false,
          "internalType": "bytes3",
          "name": "fiatSymbol",
          "type": "bytes3"
        },
        {
          "indexed": false,
          "internalType": "uint256",
          "name": "fiatAmount",
          "type": "uint256"
        },
        {
          "indexed": false,
          "internalType": "uint256",
          "name": "fiatToTokenRate",
          "type": "uint256"
        }
      ],
      "name": "OfferCreated",
      "type": "event"
    },
    {
      "anonymous": false,
      "inputs": [
        {
          "indexed": true,
          "internalType": "bytes32",
          "name": "ref",
          "type": "bytes32"
        }
      ],
      "name": "OfferMarkedPaid",
      "type": "event"
    },
    {
      "anonymous": false,
      "inputs": [
        {
          "indexed": true,
          "internalType": "bytes32",
          "name": "ref",
          "type": "bytes32"
        },
        {
          "indexed": false,
          "internalType": "uint256",
          "name": "tokenAmount",
          "type": "uint256"
        }
      ],
      "name": "OfferPicked",
      "type": "event"
    },
    {
      "anonymous": false,
      "inputs": [
        {
          "indexed": true,
          "internalType": "bytes32",
          "name": "ref",
          "type": "bytes32"
        }
      ],
      "name": "OfferReleased",
      "type": "event"
    },
    {
      "anonymous": false,
      "inputs": [],
      "name": "Paused",
      "type": "event"
    },
    {
      "anonymous": false,
      "inputs": [
        {
          "indexed": true,
          "internalType": "bytes32",
          "name": "id",
          "type": "bytes32"
        },
        {
          "indexed": false,
          "internalType": "address",
          "name": "token",
          "type": "address"
        },
        {
          "indexed": false,
          "internalType": "address",
          "name": "to",
          "type": "address"
        },
        {
          "indexed": false,
          "internalType": "uint256",
          "name": "amount",
          "type": "uint256"
        },
        {
          "indexed": false,
          "internalType": "uint256",
          "name": "unlockTime",
          "type": "uint256"
        }
      ],
      "name": "TimelockCreated",
      "type": "event"
    },
    {
      "anonymous": false,
      "inputs": [
        {
          "indexed": true,
          "internalType": "bytes32",
          "name": "id",
          "type": "bytes32"
        }
      ],
      "name": "TimelockExecuted",
      "type": "event"
    },
    {
      "anonymous": false,
      "inputs": [],
      "name": "Unpaused",
      "type": "event"
    },
    {
      "anonymous": false,
      "inputs": [
        {
          "indexed": true,
          "internalType": "address",
          "name": "user",
          "type": "address"
        },
        {
          "indexed": false,
          "internalType": "bool",
          "name": "status",
          "type": "bool"
        }
      ],
      "name": "Whitelisted",
      "type": "event"
    },
    {
      "inputs": [],
      "name": "TIMELOCK_DELAY",
      "outputs": [
        {
          "internalType": "uint256",
          "name": "",
          "type": "uint256"
        }
      ],
      "stateMutability": "view",
      "type": "function"
    },
    {
      "inputs": [],
      "name": "accessControl",
      "outputs": [
        {
          "internalType": "contract IAccessControlModule",
          "name": "",
          "type": "address"
        }
      ],
      "stateMutability": "view",
      "type": "function"
    },
    {
      "inputs": [
        {
          "internalType": "address",
          "name": "",
          "type": "address"
        }
      ],
      "name": "blacklist",
      "outputs": [
        {
          "internalType": "bool",
          "name": "",
          "type": "bool"
        }
      ],
      "stateMutability": "view",
      "type": "function"
    },
    {
      "inputs": [
        {
          "internalType": "bytes32",
          "name": "ref",
          "type": "bytes32"
        }
      ],
      "name": "cancelOffer",
      "outputs": [],
      "stateMutability": "nonpayable",
      "type": "function"
    },
    {
      "inputs": [
        {
          "internalType": "bytes32",
          "name": "ref",
          "type": "bytes32"
        }
      ],
      "name": "createAppeal",
      "outputs": [],
      "stateMutability": "nonpayable",
      "type": "function"
    },
    {
      "inputs": [
        {
          "internalType": "bytes32",
          "name": "ref",
          "type": "bytes32"
        },
        {
          "internalType": "address",
          "name": "counterparty",
          "type": "address"
        },
        {
          "internalType": "address",
          "name": "token",
          "type": "address"
        },
        {
          "internalType": "bool",
          "name": "isBuy",
          "type": "bool"
        },
        {
          "internalType": "uint32",
          "name": "expiry",
          "type": "uint32"
        },
        {
          "internalType": "string",
          "name": "fiatSymbol",
          "type": "string"
        },
        {
          "internalType": "uint256",
          "name": "fiatAmount",
          "type": "uint256"
        },
        {
          "internalType": "uint256",
          "name": "fiatToTokenRate",
          "type": "uint256"
        },
        {
          "internalType": "uint256",
          "name": "tokenAmount",
          "type": "uint256"
        }
      ],
      "name": "createOffer",
      "outputs": [],
      "stateMutability": "nonpayable",
      "type": "function"
    },
    {
      "inputs": [
        {
          "internalType": "bytes32",
          "name": "id",
          "type": "bytes32"
        }
      ],
      "name": "executeRescueERC20",
      "outputs": [],
      "stateMutability": "nonpayable",
      "type": "function"
    },
    {
      "inputs": [
        {
          "internalType": "bytes32",
          "name": "id",
          "type": "bytes32"
        }
      ],
      "name": "executeRescueETH",
      "outputs": [],
      "stateMutability": "nonpayable",
      "type": "function"
    },
    {
      "inputs": [
        {
          "internalType": "bytes32",
          "name": "ref",
          "type": "bytes32"
        }
      ],
      "name": "getOffer",
      "outputs": [
        {
          "internalType": "address",
          "name": "creator",
          "type": "address"
        },
        {
          "internalType": "address",
          "name": "counterparty",
          "type": "address"
        },
        {
          "internalType": "address",
          "name": "token",
          "type": "address"
        },
        {
          "internalType": "bool",
          "name": "isBuy",
          "type": "bool"
        },
        {
          "internalType": "uint32",
          "name": "expiry",
          "type": "uint32"
        },
        {
          "internalType": "bytes3",
          "name": "fiatSymbol",
          "type": "bytes3"
        },
        {
          "internalType": "uint256",
          "name": "fiatAmount",
          "type": "uint256"
        },
        {
          "internalType": "uint256",
          "name": "fiatToTokenRate",
          "type": "uint256"
        },
        {
          "internalType": "bool",
          "name": "appealed",
          "type": "bool"
        },
        {
          "internalType": "bool",
          "name": "paid",
          "type": "bool"
        },
        {
          "internalType": "bool",
          "name": "released",
          "type": "bool"
        },
        {
          "internalType": "uint256",
          "name": "tokenAmount",
          "type": "uint256"
        },
        {
          "internalType": "bool",
          "name": "picked",
          "type": "bool"
        }
      ],
      "stateMutability": "view",
      "type": "function"
    },
    {
      "inputs": [
        {
          "internalType": "bytes32",
          "name": "ref",
          "type": "bytes32"
        }
      ],
      "name": "markPaid",
      "outputs": [],
      "stateMutability": "nonpayable",
      "type": "function"
    },
    {
      "inputs": [
        {
          "internalType": "bytes32",
          "name": "",
          "type": "bytes32"
        }
      ],
      "name": "offers",
      "outputs": [
        {
          "internalType": "address",
          "name": "creator",
          "type": "address"
        },
        {
          "internalType": "address",
          "name": "counterparty",
          "type": "address"
        },
        {
          "internalType": "address",
          "name": "token",
          "type": "address"
        },
        {
          "internalType": "bool",
          "name": "isBuy",
          "type": "bool"
        },
        {
          "internalType": "bool",
          "name": "paid",
          "type": "bool"
        },
        {
          "internalType": "bool",
          "name": "released",
          "type": "bool"
        },
        {
          "internalType": "bool",
          "name": "picked",
          "type": "bool"
        },
        {
          "internalType": "uint32",
          "name": "expiry",
          "type": "uint32"
        },
        {
          "internalType": "uint256",
          "name": "fiatAmount",
          "type": "uint256"
        },
        {
          "internalType": "uint256",
          "name": "fiatToTokenRate",
          "type": "uint256"
        },
        {
          "internalType": "bytes3",
          "name": "fiatSymbol",
          "type": "bytes3"
        },
        {
          "internalType": "bool",
          "name": "appealed",
          "type": "bool"
        },
        {
          "internalType": "uint256",
          "name": "tokenAmount",
          "type": "uint256"
        }
      ],
      "stateMutability": "view",
      "type": "function"
    },
    {
      "inputs": [],
      "name": "pause",
      "outputs": [],
      "stateMutability": "nonpayable",
      "type": "function"
    },
    {
      "inputs": [],
      "name": "paused",
      "outputs": [
        {
          "internalType": "bool",
          "name": "",
          "type": "bool"
        }
      ],
      "stateMutability": "view",
      "type": "function"
    },
    {
      "inputs": [
        {
          "internalType": "bytes32",
          "name": "ref",
          "type": "bytes32"
        }
      ],
      "name": "pickOffer",
      "outputs": [],
      "stateMutability": "nonpayable",
      "type": "function"
    },
    {
      "inputs": [
        {
          "internalType": "address",
          "name": "token1",
          "type": "address"
        }
      ],
      "name": "releaseFund",
      "outputs": [],
      "stateMutability": "nonpayable",
      "type": "function"
    },
    {
      "inputs": [
        {
          "internalType": "bytes32",
          "name": "ref",
          "type": "bytes32"
        }
      ],
      "name": "releaseOffer",
      "outputs": [],
      "stateMutability": "nonpayable",
      "type": "function"
    },
    {
      "inputs": [
        {
          "internalType": "bytes32",
          "name": "ref",
          "type": "bytes32"
        },
        {
          "internalType": "bool",
          "name": "release",
          "type": "bool"
        }
      ],
      "name": "resolveAppeal",
      "outputs": [],
      "stateMutability": "nonpayable",
      "type": "function"
    },
    {
      "inputs": [
        {
          "internalType": "address",
          "name": "token",
          "type": "address"
        },
        {
          "internalType": "address",
          "name": "to",
          "type": "address"
        },
        {
          "internalType": "uint256",
          "name": "amount",
          "type": "uint256"
        }
      ],
      "name": "scheduleRescueERC20",
      "outputs": [
        {
          "internalType": "bytes32",
          "name": "",
          "type": "bytes32"
        }
      ],
      "stateMutability": "nonpayable",
      "type": "function"
    },
    {
      "inputs": [
        {
          "internalType": "address payable",
          "name": "to",
          "type": "address"
        },
        {
          "internalType": "uint256",
          "name": "amount",
          "type": "uint256"
        }
      ],
      "name": "scheduleRescueETH",
      "outputs": [
        {
          "internalType": "bytes32",
          "name": "",
          "type": "bytes32"
        }
      ],
      "stateMutability": "nonpayable",
      "type": "function"
    },
    {
      "inputs": [
        {
          "internalType": "address",
          "name": "user",
          "type": "address"
        },
        {
          "internalType": "bool",
          "name": "status",
          "type": "bool"
        }
      ],
      "name": "setBlacklist",
      "outputs": [],
      "stateMutability": "nonpayable",
      "type": "function"
    },
    {
      "inputs": [
        {
          "internalType": "address",
          "name": "user",
          "type": "address"
        },
        {
          "internalType": "bool",
          "name": "status",
          "type": "bool"
        }
      ],
      "name": "setWhitelist",
      "outputs": [],
      "stateMutability": "nonpayable",
      "type": "function"
    },
    {
      "inputs": [
        {
          "internalType": "bytes32",
          "name": "",
          "type": "bytes32"
        }
      ],
      "name": "timelocks",
      "outputs": [
        {
          "internalType": "uint256",
          "name": "amount",
          "type": "uint256"
        },
        {
          "internalType": "address",
          "name": "token",
          "type": "address"
        },
        {
          "internalType": "address",
          "name": "to",
          "type": "address"
        },
        {
          "internalType": "uint256",
          "name": "unlockTime",
          "type": "uint256"
        },
        {
          "internalType": "bool",
          "name": "executed",
          "type": "bool"
        }
      ],
      "stateMutability": "view",
      "type": "function"
    },
    {
      "inputs": [],
      "name": "unpause",
      "outputs": [],
      "stateMutability": "nonpayable",
      "type": "function"
    },
    {
      "inputs": [
        {
          "internalType": "address",
          "name": "",
          "type": "address"
        }
      ],
      "name": "whitelist",
      "outputs": [
        {
          "internalType": "bool",
          "name": "",
          "type": "bool"
        }
      ],
      "stateMutability": "view",
      "type": "function"
    }
  ],
  "bytecode": "0x60a03461010157601f6131a238819003918201601f19168301916001600160401b038311848410176101055780849260209460405283398101031261010157516001600160a01b038116908190036101015780156100bc5760805260018055604051613088908161011a82396080518181816101c3015281816102d8015281816103750152818161045f01528181610616015281816107eb01528181610b7601528181610e3a01528181610f1a01528181610ff90152611c9a0152f35b60405162461bcd60e51b815260206004820152601660248201527f496e76616c69642061636365737320636f6e74726f6c000000000000000000006044820152606490fd5b5f80fd5b634e487b7160e01b5f52604160045260245ffdfe60806040526004361015610011575f80fd5b5f3560e01c80630a2d82121461019457806313007d551461018f578063153b0d1e1461018a5780632a6426af146101855780633f4ba83a14610180578063474d3ff01461017b5780634d13507d146101765780634e7d75661461017157806353d6fd591461016c5780635ba1c1a9146101675780635c975abb146101625780636fb331901461015d5780638456cb59146101585780639b19251a14610153578063a05bcb011461014e578063a75756bb14610149578063b738307814610144578063c9ceddb81461013f578063cb6ca29e1461013a578063d597b8c814610135578063defb274914610130578063f952279e1461012b578063f9f92be4146101265763fe28174a14610121575f80fd5b611c53565b611c13565b611a6e565b61193a565b611887565b61138e565b611325565b6112a1565b610fbd565b610eeb565b610eab565b610e0f565b610c43565b610c22565b610c05565b610b4b565b610a39565b6107b3565b610684565b6105eb565b610422565b61034a565b6102c3565b346102bf5760203660031901126102bf57600435604051630935e01b60e21b81523360048201526020816024817f00000000000000000000000000000000000000000000000000000000000000006001600160a01b03165afa80156102ba57610204915f9161028b575b50611ee0565b805f52600260205261026560405f20610258600482019161022960ff84541615611f19565b6102396003820154421015611f58565b600181015460028201549154916001600160a01b039081169116612af3565b805460ff19166001179055565b7f608879471643fec8a3d053e61fed9b5bb710b0ae4b697d1678d92eb5ea6d00be5f80a2005b6102ad915060203d6020116102b3575b6102a58183611e99565b810190611ec0565b5f6101fe565b503d61029b565b611ed5565b5f80fd5b346102bf575f3660031901126102bf576040517f00000000000000000000000000000000000000000000000000000000000000006001600160a01b03168152602090f35b6001600160a01b038116036102bf57565b801515036102bf57565b60409060031901126102bf5760043561033a81610307565b9060243561034781610318565b90565b346102bf5761035836610322565b604051630935e01b60e21b815233600482015290916020826024817f00000000000000000000000000000000000000000000000000000000000000006001600160a01b03165afa9081156102ba576103da6020927fcf3473b85df1594d47b6958f29a32bea0abff9dd68296f7bf33443646793cfd8945f9161040b5750611ee0565b6001600160a01b03165f8181526005835260409020805460ff191660ff86151516179055925b6040519015158152a2005b6102ad9150843d86116102b3576102a58183611e99565b346102bf5760403660031901126102bf5760043561043f81610307565b602435604051630935e01b60e21b815233600482015290916020826024817f00000000000000000000000000000000000000000000000000000000000000006001600160a01b03165afa80156102ba576105dd936104c87f49ecba429b8564fb4e42c2f84beb1964b50dd3d4ec5f74c4bb0dbd6014d1f3bb92610593955f9161028b5750611ee0565b6001600160a01b038316926104de841515611f9b565b4791806105e157506104f3825b831115611fd9565b6040515f60208201908152606083901b6bffffffffffffffffffffffff19166034830152604882018490524260688301529061053c81608881015b03601f198101835282611e99565b51902094859461054b42612012565b610571610556612036565b8681525f60208201526001600160a01b039093166040840152565b60608201525f608082015261058e865f52600260205260405f2090565b612045565b6105ca61059f42612012565b6040519384938460609194939260808201955f835260018060a01b0316602083015260408201520152565b0390a26040519081529081906020820190565b0390f35b6104f390926104eb565b346102bf575f3660031901126102bf57604051630935e01b60e21b81523360048201526020816024817f00000000000000000000000000000000000000000000000000000000000000006001600160a01b03165afa80156102ba57610656915f9161028b5750611ee0565b60ff195f54165f557fa45f47fdea8a1efdd9029a5691c7f759c32b7c698632b563573e155625d169335f80a1005b346102bf5760203660031901126102bf576004355f908152600360205260409020805460018201546002830154926001600160a01b03918216926105dd92169060b085901c60ff1660b886901c60ff1660c087901c63ffffffff16600384015490600485015492600586015494600661070a6107008860e81b90565b9760181c60ff1690565b970154976040519b8c809c60ff8360a81c169360ff8460a01c169360018060a01b0316926001600160a01b03918216815291811660208301529091166040820152901515606082015290151560808201526101a08101999897909690959094909390929091151560a0880152151560c087015263ffffffff1660e08601526101008501526101208401526001600160e81b03191661014083015215156101608201526101800152565b346102bf5760203660031901126102bf576004356107d081610307565b604051630935e01b60e21b81523360048201526020816024817f00000000000000000000000000000000000000000000000000000000000000006001600160a01b03165afa80156102ba5761082b915f9161028b5750611ee0565b6040516370a0823160e01b81523060048201526001600160a01b038216602082602481845afa80156102ba575f93849384926109f9575b50815f5160206130335f395f51905f5291610882604051928392836120d1565b0390a160405163a9059cbb60e01b60208201908152336024830152604482019290925283906108b4816064810161052e565b51925af16108c061213c565b9080156109a7577f2ca7ea951db3bc93c3c659c7ddf08261b1b1153e0685c16b88444c6235865c5360405180610912816060906020815260076020820152665375636365737360c81b60408201520190565b0390a15b1561091d57005b61052e61098b61092f6109a393612bbf565b7fc69f174c2d14f8b196479989a5efcf322f5c0106a8285380bbd932920d4912e06040518061095e848261218f565b0390a16040517003a3930b739b332b9103330b4b632b21d1607d1b602082015292839160318301906121cc565b60405162461bcd60e51b8152918291600483016121de565b0390fd5b7f2ca7ea951db3bc93c3c659c7ddf08261b1b1153e0685c16b88444c6235865c53604051806109f18160609060208152600660208201526511985a5b195960d21b60408201520190565b0390a1610916565b5f5160206130335f395f51905f52919250610a2b9060203d602011610a32575b610a238183611e99565b8101906120c2565b9190610862565b503d610a19565b346102bf5760203660031901126102bf576004355f81815260036020526040902054610a6f906001600160a01b031615156121ef565b610a7d60ff5f541615612232565b335f526005602052610a9660ff60405f20541615612270565b335f526004602052610aae60ff60405f2054166122b2565b805f526003602052610b0d600560405f2060018060a01b0381541633148015610b35575b610adb906122f5565b01610afa610af5610af1835460ff9060181c1690565b1590565b612330565b805463ff00000019166301000000179055565b33907f8f8abce5af81d2ae8965eabf0b0898e998e2c807472c5e022857b06a7ed84e3f5f80a3005b5060018101546001600160a01b03163314610ad2565b346102bf57610b5936610322565b604051630935e01b60e21b815233600482015290916020826024817f00000000000000000000000000000000000000000000000000000000000000006001600160a01b03165afa9081156102ba57610bdb6020927fa54714518c5d275fdcd3d2a461e4858e4e8cb04fb93cd0bca9d6d34115f26440945f9161040b5750611ee0565b6001600160a01b03165f8181526004835260409020805460ff191660ff8615151617905592610400565b346102bf575f3660031901126102bf576020604051620151808152f35b346102bf575f3660031901126102bf57602060ff5f54166040519015158152f35b346102bf5760203660031901126102bf576004355f81815260036020526040902054610c79906001600160a01b031615156121ef565b610c8760ff5f541615612232565b335f526005602052610ca060ff60405f20541615612270565b335f526004602052610cb860ff60405f2054166122b2565b7fd47319d3b436e86be24d2719f5834667d66b149faed43f6358833454d5db5367610dba6006610cf0845f52600360205260405f2090565b600181018054610da89190610d22906001600160a01b03166001600160a01b0381163314908115610dfd575b5061236f565b610d7f6002840191610d6d610d68610af18554610d4e610d49610af18360ff9060a81c1690565b6123bb565b610d5f60ff60b883901c16156123fd565b60b01c60ff1690565b61243a565b80546001600160a01b03191633179055565b805460a081901c60ff1680610df1575b610dbf575b50805460ff60b81b1916600160b81b179055565b01546040519081529081906020820190565b0390a2005b610deb90610ddd906001600160a01b03165b6001600160a01b031690565b858501549030903390612c7c565b5f610d94565b50848401541515610d8f565b6001600160a01b03161590505f610d1c565b346102bf575f3660031901126102bf57604051630935e01b60e21b81523360048201526020816024817f00000000000000000000000000000000000000000000000000000000000000006001600160a01b03165afa80156102ba57610e7a915f9161028b5750611ee0565b600160ff195f5416175f557f9e87fac88ff661f02d44f95383c817fece4bce600a3dab7a54406878b965e7525f80a1005b346102bf5760203660031901126102bf57600435610ec881610307565b60018060a01b03165f526004602052602060ff60405f2054166040519015158152f35b346102bf5760203660031901126102bf57600435604051630935e01b60e21b81523360048201526020816024817f00000000000000000000000000000000000000000000000000000000000000006001600160a01b03165afa80156102ba57610f5a915f9161028b5750611ee0565b805f52600260205261026560405f206102585f8080806004860195610f8360ff88541615611f19565b610f936003820154421015611f58565b6002810154610faa906001600160a01b0316610dd1565b9054905af1610fb761213c565b50612479565b346102bf5760403660031901126102bf57600435602435610fdd81610318565b604051630935e01b60e21b8152336004820152906020826024817f00000000000000000000000000000000000000000000000000000000000000006001600160a01b03165afa9081156102ba5761105f6110fd927fa6c893565b2cce40204bd8ee5adcd7d7b2989fa275233c080a79614ccce59246945f9161028b5750611ee0565b5f84815260036020526040902054611081906001600160a01b031615156121ef565b61108f60ff5f541615612232565b61109c60018054146124bb565b60026001556110b3845f52600360205260405f2090565b6110de600582016110d16110cc825460ff9060181c1690565b612507565b805463ff00000019169055565b818061125a575b61110b575b5060405190151581529081906020820190565b0390a261110960018055565b005b80546001600160a01b03165f8181526004602052604090206111a8929161116891610af19161113991611140905b5460ff1690565b8061121e575b61114f9061253f565b6001600160a01b03165f90815260056020526040902090565b806111f3575b6111779061258b565b600281018054909160ff60a083901c1615806111e6575b6111ae575b5050805460ff60b01b1916600160b01b179055565b5f6110ea565b6111df916111c4906001600160a01b0316610dd1565b6001820154600690920154916001600160a01b031690612af3565b5f80611193565b506006810154151561118e565b5060018101546111779061121790610af190611139906001600160a01b031661114f565b905061116e565b50600185015461114f9061125390611139906001600160a01b03165b6001600160a01b03165f90815260046020526040902090565b9050611146565b50600281015461126e9060b01c60ff161590565b6110e5565b9181601f840112156102bf5782359167ffffffffffffffff83116102bf57602083818601950101116102bf57565b346102bf576101203660031901126102bf576024356004356112c282610307565b604435916112cf83610307565b606435926112dc84610318565b60843563ffffffff811681036102bf5760a4359467ffffffffffffffff86116102bf57611310611109963690600401611273565b92909160c4359460e4359661010435986125e2565b346102bf5760203660031901126102bf576004355f52600260205260a060405f20805490600180841b0360018201541690600180851b0360028201541660ff60046003840154930154169260405194855260208501526040840152606083015215156080820152f35b346102bf5760203660031901126102bf576004355f818152600360205260409020546113c4906001600160a01b031615156121ef565b6113d260ff5f541615612232565b6113df60018054146124bb565b60026001556113f6815f52600360205260405f2090565b600281018054929161140e60a885901c60ff166128ec565b61141f60ff60b086901c161561243a565b61143460b885901c60ff1661292a565b61292a565b80546001600160a01b03165f81815260046020526040902061145590611139565b806117d3575b6114649061253f565b6001600160a01b0381165f90815260056020526040902061148890610af190611139565b806117a8575b6114979061258b565b60a085901c60ff1691821561178f5760018101546114c8906114c1906001600160a01b0316610dd1565b33146129a8565b60018101805490966001600160a01b03918216917f31d72f23908f63ee4afe845a51a1dc14d599a94067a7c76b075c62054db20fc19116600684018054600386015460049096015460408051610120808252601a908201527f72656c656173654f666665723a207072652d7472616e73666572000000000000610140820152602081018d90526001600160a01b03998a16918101919091528689166060820152978416608089015297151560a088015260c0870181905260e08701959095526101008601969096529361016090a16115a18215156129f4565b6115b36001600160a01b038416610dd1565b6040516370a0823160e01b815230600482015293909190602085602481865afa9485156102ba576116518561161d5f98978998899661052e96889261175f575b50815f5160206130335f395f51905f5291611613604051928392836120d1565b0390a11015612a30565b60405163a9059cbb60e01b602082019081526001600160a01b03909616602482015260448101919091529182906064820190565b51925af19361165e61213c565b941561174d57825461172093927fb6586c26c51bdf3b23c5f3d9efb70b1297357afdc66d6a600259311ca9578b8792909161170a906116ae906001600160a01b031692546001600160a01b031690565b925460405193849384606091949392608082526016608083015275546f6b656e207472616e73666572207375636365737360501b60a083015260c082019560018060a01b0316602083015260018060a01b031660408201520152565b0390a1805460ff60b01b1916600160b01b179055565b7fd537159b33aede12d4abc819f5078af138803fe8729a04eae844350df82353c85f80a261110960018055565b6109a361052e61098b61092f88612bbf565b5f5160206130335f395f51905f529192506117889060203d602011610a3257610a238183611e99565b91906115f3565b6117a36001600160a01b0383163314612963565b6114c8565b506001820154611497906117cc90610af190611139906001600160a01b031661114f565b905061148e565b506001820154611464906117f390611139906001600160a01b031661123a565b905061145b565b6001600160a01b03918216815291811660208301529091166040820152901515606082015263ffffffff90911660808201526101a081019998979096909590949093909290916001600160e81b03191660a088015260c087015260e0860152151561010085015215156101208401521515610140830152610160820152610180016118859115159052565b565b346102bf5760203660031901126102bf576004355f908152600360205260409020805460018201546002830154600584015490936001600160a01b03928316936105dd9316919060e882901b916003820154906118ed60048401549160ff9060181c1690565b9060a889901c60ff1692600660b08b901c60ff169501549560b88b901c60ff166040519b8c9b919960c082901c63ffffffff169260a083901c60ff16926001600160a01b0316918e6117fa565b346102bf5760203660031901126102bf576004355f81815260036020526040902054611970906001600160a01b031615156121ef565b61197e60ff5f541615612232565b335f52600560205261199760ff60405f20541615612270565b335f5260046020526119af60ff60405f2054166122b2565b5f81815260036020526040902060018101546001600160a01b03163303611a35576002611a0f91016119fc610d49610af183546119f361142f8260ff9060b81c1690565b60a81c60ff1690565b805460ff60a81b1916600160a81b179055565b7f2137eb87e7949804a4e0e1a69cee7227d9453bdca35c953b842022a5d828af545f80a2005b60405162461bcd60e51b81526020600482015260116024820152704f6e6c7920636f756e746572706172747960781b6044820152606490fd5b346102bf5760203660031901126102bf576004355f81815260036020526040902054611aa4906001600160a01b031615156121ef565b611ab260ff5f541615612232565b611abf60018054146124bb565b6002600155335f526005602052611add60ff60405f20541615612270565b335f526004602052611af560ff60405f2054166122b2565b611b07815f52600360205260405f2090565b80546001600160a01b031690611b1e338314612a7c565b60028101549160ff60b084901c161580611c04575b611b3c90612ab7565b611b4d60ff60b885901c16156123fd565b60ff60a084901c161580611bf7575b611bcd575b83611ba0611b77825f52600360205260405f2090565b60065f918281558260018201558260028201558260038201558260048201558260058201550155565b7f3f9cb69d022b6ec319f86f2df848bcce01f2fc51c9f86396779a8081cf6ca2ea5f80a261110960018055565b611bef92600690611be6906001600160a01b0316610dd1565b92015491612af3565b5f8080611b61565b5060068201541515611b5c565b5060a883901c60ff1615611b33565b346102bf5760203660031901126102bf57600435611c3081610307565b60018060a01b03165f526005602052602060ff60405f2054166040519015158152f35b346102bf5760603660031901126102bf57600435611c7081610307565b602435611c7c81610307565b604435604051630935e01b60e21b81523360048201526020816024817f00000000000000000000000000000000000000000000000000000000000000006001600160a01b03165afa80156102ba57611cda915f9161028b5750611ee0565b611cee6001600160a01b0383161515611f9b565b6040516370a0823160e01b8152306004820152916020836024816001600160a01b0388165afa9081156102ba576105dd946105ca945f93611e44575b507f49ecba429b8564fb4e42c2f84beb1964b50dd3d4ec5f74c4bb0dbd6014d1f3bb929380155f14611e3a5750611d64845b851115611fd9565b604051606082811b6bffffffffffffffffffffffff19908116602084019081529185901b1660348301526048820186905242606883015290611da9816088810161052e565b519020948594611e02611dbb42612012565b611dc3612036565b8381526001600160a01b0386166020820152906001600160a01b038716604083015260608201525f608082015261058e885f52600260205260405f2090565b611e0b42612012565b604080516001600160a01b03958616815295909416602086015292840152606083019190915281906080820190565b611d649094611d5c565b7f49ecba429b8564fb4e42c2f84beb1964b50dd3d4ec5f74c4bb0dbd6014d1f3bb9350611e7f9060203d602011610a3257610a238183611e99565b92611d2a565b634e487b7160e01b5f52604160045260245ffd5b90601f8019910116810190811067ffffffffffffffff821117611ebb57604052565b611e85565b908160209103126102bf575161034781610318565b6040513d5f823e3d90fd5b15611ee757565b60405162461bcd60e51b815260206004820152600a60248201526927b7363c9030b236b4b760b11b6044820152606490fd5b15611f2057565b60405162461bcd60e51b815260206004820152601060248201526f185b1c9958591e48195e1958dd5d195960821b6044820152606490fd5b15611f5f57565b60405162461bcd60e51b81526020600482015260146024820152731d1a5b595b1bd8dac81b9bdd08195e1c1a5c995960621b6044820152606490fd5b15611fa257565b60405162461bcd60e51b815260206004820152600f60248201526e696e76616c6964206164647265737360881b6044820152606490fd5b15611fe057565b60405162461bcd60e51b815260206004820152600a6024820152696e6f2062616c616e636560b01b6044820152606490fd5b9062015180820180921161202257565b634e487b7160e01b5f52601160045260245ffd5b6040519061188560a083611e99565b8151815560208201516001820180546001600160a01b0319166001600160a01b03929092169190911790556118859160049060809060408101516002850180546001600160a01b0319166001600160a01b0392909216919091179055606081015160038501550151151591019060ff801983541691151516179055565b908160209103126102bf575190565b6060808252601d908201527f5661756c742062616c616e6365206265666f7265207472616e7366657200000060808201526001600160a01b039091166020820152604081019190915260a00190565b67ffffffffffffffff8111611ebb57601f01601f191660200190565b3d15612166573d9061214d82612120565b9161215b6040519384611e99565b82523d5f602084013e565b606090565b805180835260209291819084018484015e5f828201840152601f01601f1916010190565b90608061034792604081526015604082015274151bdad95b881d1c985b9cd9995c8819985a5b1959605a1b6060820152816020820152019061216b565b805191908290602001825e015f815290565b90602061034792818152019061216b565b156121f657565b60405162461bcd60e51b815260206004820152601460248201527313d999995c88191bd95cc81b9bdd08195e1a5cdd60621b6044820152606490fd5b1561223957565b60405162461bcd60e51b815260206004820152600f60248201526e10dbdb9d1c9858dd081c185d5cd959608a1b6044820152606490fd5b1561227757565b60405162461bcd60e51b8152602060048201526013602482015272155cd95c881a5cc8189b1858dadb1a5cdd1959606a1b6044820152606490fd5b156122b957565b60405162461bcd60e51b8152602060048201526014602482015273155cd95c881b9bdd081dda1a5d195b1a5cdd195960621b6044820152606490fd5b156122fc57565b60405162461bcd60e51b815260206004820152600c60248201526b4f6e6c79207061727469657360a01b6044820152606490fd5b1561233757565b60405162461bcd60e51b815260206004820152601060248201526f105b1c9958591e48185c1c19585b195960821b6044820152606490fd5b1561237657565b60405162461bcd60e51b815260206004820152601860248201527f6f6e6c792063686f73656e20636f756e746572706172747900000000000000006044820152606490fd5b156123c257565b60405162461bcd60e51b8152602060048201526013602482015272105b1c9958591e481b585c9ad959081c185a59606a1b6044820152606490fd5b1561240457565b60405162461bcd60e51b815260206004820152600e60248201526d105b1c9958591e481c1a58dad95960921b6044820152606490fd5b1561244157565b60405162461bcd60e51b815260206004820152601060248201526f105b1c9958591e481c995b19585cd95960821b6044820152606490fd5b1561248057565b60405162461bcd60e51b8152602060048201526013602482015272195d1a081d1c985b9cd9995c8819985a5b1959606a1b6044820152606490fd5b156124c257565b60405162461bcd60e51b815260206004820152601f60248201527f5265656e7472616e637947756172643a207265656e7472616e742063616c6c006044820152606490fd5b1561250e57565b60405162461bcd60e51b8152602060048201526009602482015268139bc8185c1c19585b60ba1b6044820152606490fd5b1561254657565b60405162461bcd60e51b815260206004820152601860248201527f426f7468206d7573742062652077686974656c697374656400000000000000006044820152606490fd5b1561259257565b60405162461bcd60e51b815260206004820152602260248201527f43616e6e6f742072656c6561736520746f20626c61636b6c697374656420757360448201526132b960f11b6064820152608490fd5b9498979695986125f660ff5f541615612232565b335f52600560205261260f60ff60405f20541615612270565b6001600160a01b0382165f908152600560205260409020546126349060ff1615612270565b335f52600460205261264c60ff60405f2054166122b2565b85156126ed576126c56118859a61268c60018060a01b036126856126788b5f52600360205260405f2090565b546001600160a01b031690565b1615612720565b61269d4263ffffffff89161161275b565b6126b560038b1515926126af8461279f565b146127da565b6126c0891515612826565b612868565b6126d08915156128a9565b6126e489336001600160a01b038616612de5565b35943390612ebe565b60405162461bcd60e51b815260206004820152600b60248201526a24b73b30b634b2103932b360a91b6044820152606490fd5b1561272757565b60405162461bcd60e51b815260206004820152600c60248201526b4f666665722065786973747360a01b6044820152606490fd5b1561276257565b60405162461bcd60e51b8152602060048201526015602482015274457870697279206d7573742062652066757475726560581b6044820152606490fd5b156127a657565b60405162461bcd60e51b815260206004820152600c60248201526b496e76616c6964207261746560a01b6044820152606490fd5b156127e157565b60405162461bcd60e51b815260206004820152601b60248201527f466961742073796d626f6c206d757374206265203320636861727300000000006044820152606490fd5b1561282d57565b60405162461bcd60e51b8152602060048201526013602482015272125b9d985b1a5908199a585d08185b5bdd5b9d606a1b6044820152606490fd5b1561286f57565b60405162461bcd60e51b8152602060048201526012602482015271496e76616c696420746f6b656e207261746560701b6044820152606490fd5b156128b057565b60405162461bcd60e51b8152602060048201526014602482015273125b9d985b1a59081d1bdad95b88185b5bdd5b9d60621b6044820152606490fd5b156128f357565b60405162461bcd60e51b815260206004820152600f60248201526e139bdd081b585c9ad959081c185a59608a1b6044820152606490fd5b1561293157565b60405162461bcd60e51b815260206004820152600a602482015269139bdd081c1a58dad95960b21b6044820152606490fd5b1561296a57565b60405162461bcd60e51b81526020600482015260166024820152754f6e6c792042757965722063616e2072656c6561736560501b6044820152606490fd5b156129af57565b60405162461bcd60e51b815260206004820152601760248201527f4f6e6c792073656c6c65722063616e2072656c656173650000000000000000006044820152606490fd5b156129fb57565b60405162461bcd60e51b815260206004820152600d60248201526c0746f6b656e416d6f756e743d3609c1b6044820152606490fd5b15612a3757565b60405162461bcd60e51b815260206004820152601a60248201527f696e73756666696369656e74207661756c742062616c616e63650000000000006044820152606490fd5b15612a8357565b60405162461bcd60e51b815260206004820152600c60248201526b27b7363c9031b932b0ba37b960a11b6044820152606490fd5b15612abe57565b60405162461bcd60e51b815260206004820152600d60248201526c10d85b9b9bdd0818d85b98d95b609a1b6044820152606490fd5b60405163a9059cbb60e01b602082019081526001600160a01b03909316602482015260448101939093525f928392908390612b31816064810161052e565b51926001600160a01b03165af1612b4661213c565b81612b90575b5015612b5457565b60405162461bcd60e51b815260206004820152601460248201527314d85999551c985b9cd9995c8e8819985a5b195960621b6044820152606490fd5b8051801592508215612ba5575b50505f612b4c565b612bb89250602080918301019101611ec0565b5f80612b9d565b6044815110612c405760048101518101602481019190602090829003126102bf5760248101519067ffffffffffffffff82116102bf5701816043820112156102bf57602481015190612c1082612120565b92612c1e6040519485611e99565b828452604482840101116102bf57815f926044602093018386015e8301015290565b50604051612c4f604082611e99565b601d81527f5472616e73616374696f6e2072657665727465642073696c656e746c79000000602082015290565b6040516323b872dd60e01b602082019081526001600160a01b0393841660248301529390921660448301526064808301949094529281525f92839290918390612cc6608482611e99565b51926001600160a01b03165af1612cdb61213c565b81612d2e575b5015612ce957565b60405162461bcd60e51b815260206004820152601860248201527f536166655472616e7366657246726f6d3a206661696c656400000000000000006044820152606490fd5b8051801592508215612d43575b50505f612ce1565b612d569250602080918301019101611ec0565b5f80612d3b565b15612d6457565b60405162461bcd60e51b8152602060048201526014602482015273496e73756666696369656e742062616c616e636560601b6044820152606490fd5b15612da757565b60405162461bcd60e51b8152602060048201526016602482015275496e73756666696369656e7420616c6c6f77616e636560501b6044820152606490fd5b6040516370a0823160e01b81526001600160a01b038381166004830152919091169291602082602481875afa9384156102ba57612e3284612e65966020955f91612ea1575b501015612d5d565b604051636eb1769f60e11b81526001600160a01b0390921660048301523060248301529093849190829081906044820190565b03915afa80156102ba57611885925f91612e82575b501015612da0565b612e9b915060203d602011610a3257610a238183611e99565b5f612e7a565b612eb89150863d8811610a3257610a238183611e99565b5f612e2a565b9690989791939561300793957fe08d604edab87ada3aab190405a7eadc75c00ba47fe6e02dc141703a6f3994ca978a60068d612f35612f168e8d86881580613029575b61300c575b50505f52600360205260405f2090565b80546001600160a01b0319166001600160a01b03909316929092178255565b6001810180546001600160a01b038c81166001600160a01b031990921691909117909155600282018054600584018054600386018c9055600486018d905563ffffffff191660e88b901c1790556001600160e01b031916918d169190911760ff60a01b86151560a01b161763ffffffff60c01b60c088901b161790550155604080519b8c526001600160a01b0398891660208d0152901515908b015263ffffffff1660608a01526001600160e81b031916608089015260a088015260c0870152908216959091169390819060e0820190565b0390a4565b61302291309087906001600160a01b0316612c7c565b8d86612f06565b50801515612f0156fe28d7b9b2f784cfd77a99878b6ee7ac54e22d1a1b3cd542a1992bc36993b213c1a2646970667358221220f384f837f67006596cbc030b11763fd0fc03cd84124134798bf0495716a8a72164736f6c634300081c0033",
  "linkReferences": {},
  "deployedLinkReferences": {},
  "immutableReferences": {
    "196": [
      {
        "length": 32,
        "start": 451
      },
      {
        "length": 32,
        "start": 728
      },
      {
        "length": 32,
        "start": 885
      },
      {
        "length": 32,
        "start": 1119
      },
      {
        "length": 32,
        "start": 1558
      },
      {
        "length": 32,
        "start": 2027
      },
      {
        "length": 32,
        "start": 2934
      },
      {
        "length": 32,
        "start": 3642
      },
      {
        "length": 32,
        "start": 3866
      },
      {
        "length": 32,
        "start": 4089
      },
      {
        "length": 32,
        "start": 7322
      }
    ]
  },
  "inputSourceName": "project/contracts/TradeEscrowVault.sol",
  "buildInfoId": "solc-0_8_28-820502bf0ffb7ed758b18ede60102180c341fdbe"
}