{
  "_format": "hh3-artifact-1",
  "contractName": "VaultLending",
  "sourceName": "contracts/VaultLending.sol",
  "abi": [
    {
      "inputs": [
        {
          "internalType": "address",
          "name": "_accessControl",
          "type": "address"
        }
      ],
      "stateMutability": "nonpayable",
      "type": "constructor"
    },
    {
      "anonymous": false,
      "inputs": [
        {
          "indexed": true,
          "internalType": "address",
          "name": "user",
          "type": "address"
        },
        {
          "indexed": false,
          "internalType": "bool",
          "name": "status",
          "type": "bool"
        }
      ],
      "name": "Blacklisted",
      "type": "event"
    },
    {
      "anonymous": false,
      "inputs": [
        {
          "indexed": true,
          "internalType": "address",
          "name": "user",
          "type": "address"
        },
        {
          "indexed": true,
          "internalType": "address",
          "name": "token",
          "type": "address"
        },
        {
          "indexed": false,
          "internalType": "uint256",
          "name": "amount",
          "type": "uint256"
        }
      ],
      "name": "Deposit",
      "type": "event"
    },
    {
      "anonymous": false,
      "inputs": [
        {
          "indexed": true,
          "internalType": "address",
          "name": "lender",
          "type": "address"
        },
        {
          "indexed": true,
          "internalType": "address",
          "name": "token",
          "type": "address"
        },
        {
          "indexed": false,
          "internalType": "uint256",
          "name": "amount",
          "type": "uint256"
        }
      ],
      "name": "FeesWithdrawn",
      "type": "event"
    },
    {
      "anonymous": false,
      "inputs": [
        {
          "indexed": false,
          "internalType": "bytes32",
          "name": "loanId",
          "type": "bytes32"
        },
        {
          "indexed": false,
          "internalType": "address",
          "name": "borrower",
          "type": "address"
        }
      ],
      "name": "LoanClosed",
      "type": "event"
    },
    {
      "anonymous": false,
      "inputs": [
        {
          "indexed": false,
          "internalType": "bytes32",
          "name": "loanId",
          "type": "bytes32"
        },
        {
          "indexed": false,
          "internalType": "address",
          "name": "borrower",
          "type": "address"
        },
        {
          "indexed": false,
          "internalType": "uint256",
          "name": "principal",
          "type": "uint256"
        },
        {
          "indexed": false,
          "internalType": "uint256",
          "name": "fee",
          "type": "uint256"
        },
        {
          "indexed": false,
          "internalType": "uint256",
          "name": "depositAmount",
          "type": "uint256"
        }
      ],
      "name": "LoanCreated",
      "type": "event"
    },
    {
      "anonymous": false,
      "inputs": [
        {
          "indexed": false,
          "internalType": "bytes32",
          "name": "loanId",
          "type": "bytes32"
        },
        {
          "indexed": false,
          "internalType": "address",
          "name": "borrower",
          "type": "address"
        },
        {
          "indexed": false,
          "internalType": "uint256",
          "name": "amount",
          "type": "uint256"
        }
      ],
      "name": "LoanDisbursed",
      "type": "event"
    },
    {
      "anonymous": false,
      "inputs": [
        {
          "indexed": false,
          "internalType": "bytes32",
          "name": "loanId",
          "type": "bytes32"
        },
        {
          "indexed": false,
          "internalType": "address",
          "name": "borrower",
          "type": "address"
        },
        {
          "indexed": false,
          "internalType": "uint256",
          "name": "amount",
          "type": "uint256"
        },
        {
          "indexed": false,
          "internalType": "uint256",
          "name": "feePaid",
          "type": "uint256"
        }
      ],
      "name": "LoanRepaid",
      "type": "event"
    },
    {
      "anonymous": false,
      "inputs": [],
      "name": "Paused",
      "type": "event"
    },
    {
      "anonymous": false,
      "inputs": [
        {
          "indexed": true,
          "internalType": "bytes32",
          "name": "id",
          "type": "bytes32"
        },
        {
          "indexed": false,
          "internalType": "address",
          "name": "token",
          "type": "address"
        },
        {
          "indexed": false,
          "internalType": "address",
          "name": "to",
          "type": "address"
        },
        {
          "indexed": false,
          "internalType": "uint256",
          "name": "amount",
          "type": "uint256"
        },
        {
          "indexed": false,
          "internalType": "uint256",
          "name": "unlockTime",
          "type": "uint256"
        }
      ],
      "name": "TimelockCreated",
      "type": "event"
    },
    {
      "anonymous": false,
      "inputs": [
        {
          "indexed": true,
          "internalType": "bytes32",
          "name": "id",
          "type": "bytes32"
        }
      ],
      "name": "TimelockExecuted",
      "type": "event"
    },
    {
      "anonymous": false,
      "inputs": [],
      "name": "Unpaused",
      "type": "event"
    },
    {
      "anonymous": false,
      "inputs": [
        {
          "indexed": true,
          "internalType": "address",
          "name": "user",
          "type": "address"
        },
        {
          "indexed": false,
          "internalType": "bool",
          "name": "status",
          "type": "bool"
        }
      ],
      "name": "Whitelisted",
      "type": "event"
    },
    {
      "anonymous": false,
      "inputs": [
        {
          "indexed": true,
          "internalType": "address",
          "name": "user",
          "type": "address"
        },
        {
          "indexed": true,
          "internalType": "address",
          "name": "token",
          "type": "address"
        },
        {
          "indexed": false,
          "internalType": "uint256",
          "name": "amount",
          "type": "uint256"
        }
      ],
      "name": "Withdraw",
      "type": "event"
    },
    {
      "inputs": [],
      "name": "accessControl",
      "outputs": [
        {
          "internalType": "contract IAccessControlModule",
          "name": "",
          "type": "address"
        }
      ],
      "stateMutability": "view",
      "type": "function"
    },
    {
      "inputs": [
        {
          "internalType": "address",
          "name": "",
          "type": "address"
        }
      ],
      "name": "blacklist",
      "outputs": [
        {
          "internalType": "bool",
          "name": "",
          "type": "bool"
        }
      ],
      "stateMutability": "view",
      "type": "function"
    },
    {
      "inputs": [
        {
          "internalType": "bytes32",
          "name": "ref",
          "type": "bytes32"
        },
        {
          "internalType": "address",
          "name": "token",
          "type": "address"
        },
        {
          "internalType": "address",
          "name": "merchant",
          "type": "address"
        },
        {
          "internalType": "uint256",
          "name": "principal",
          "type": "uint256"
        },
        {
          "internalType": "uint256",
          "name": "fee",
          "type": "uint256"
        },
        {
          "internalType": "uint256",
          "name": "depositAmount",
          "type": "uint256"
        }
      ],
      "name": "createLoan",
      "outputs": [],
      "stateMutability": "nonpayable",
      "type": "function"
    },
    {
      "inputs": [
        {
          "internalType": "address",
          "name": "",
          "type": "address"
        }
      ],
      "name": "cumulativeFeePerToken",
      "outputs": [
        {
          "internalType": "uint256",
          "name": "",
          "type": "uint256"
        }
      ],
      "stateMutability": "view",
      "type": "function"
    },
    {
      "inputs": [
        {
          "internalType": "address",
          "name": "token",
          "type": "address"
        },
        {
          "internalType": "uint256",
          "name": "amount",
          "type": "uint256"
        }
      ],
      "name": "depositToVault",
      "outputs": [],
      "stateMutability": "nonpayable",
      "type": "function"
    },
    {
      "inputs": [
        {
          "internalType": "bytes32",
          "name": "ref",
          "type": "bytes32"
        }
      ],
      "name": "disburseLoanToMerchant",
      "outputs": [],
      "stateMutability": "nonpayable",
      "type": "function"
    },
    {
      "inputs": [
        {
          "internalType": "address",
          "name": "",
          "type": "address"
        },
        {
          "internalType": "address",
          "name": "",
          "type": "address"
        }
      ],
      "name": "feeDebt",
      "outputs": [
        {
          "internalType": "uint256",
          "name": "",
          "type": "uint256"
        }
      ],
      "stateMutability": "view",
      "type": "function"
    },
    {
      "inputs": [],
      "name": "getAllBorrowers",
      "outputs": [
        {
          "internalType": "address[]",
          "name": "",
          "type": "address[]"
        }
      ],
      "stateMutability": "view",
      "type": "function"
    },
    {
      "inputs": [],
      "name": "getAllLenders",
      "outputs": [
        {
          "internalType": "address[]",
          "name": "",
          "type": "address[]"
        }
      ],
      "stateMutability": "view",
      "type": "function"
    },
    {
      "inputs": [
        {
          "internalType": "address",
          "name": "borrower",
          "type": "address"
        },
        {
          "internalType": "address",
          "name": "token",
          "type": "address"
        }
      ],
      "name": "getBorrowerStats",
      "outputs": [
        {
          "internalType": "uint256",
          "name": "vaultBalance",
          "type": "uint256"
        },
        {
          "internalType": "uint256",
          "name": "totalPaidToPool",
          "type": "uint256"
        }
      ],
      "stateMutability": "view",
      "type": "function"
    },
    {
      "inputs": [
        {
          "internalType": "address",
          "name": "lender",
          "type": "address"
        },
        {
          "internalType": "address",
          "name": "token",
          "type": "address"
        }
      ],
      "name": "getLenderStats",
      "outputs": [
        {
          "internalType": "uint256",
          "name": "deposit",
          "type": "uint256"
        },
        {
          "internalType": "uint256",
          "name": "poolShare",
          "type": "uint256"
        },
        {
          "internalType": "uint256",
          "name": "totalFeesEarned",
          "type": "uint256"
        },
        {
          "internalType": "uint256",
          "name": "feesClaimed",
          "type": "uint256"
        }
      ],
      "stateMutability": "view",
      "type": "function"
    },
    {
      "inputs": [
        {
          "internalType": "address",
          "name": "borrower",
          "type": "address"
        }
      ],
      "name": "getLoans",
      "outputs": [
        {
          "components": [
            {
              "internalType": "bytes32",
              "name": "ref",
              "type": "bytes32"
            },
            {
              "internalType": "address",
              "name": "borrower",
              "type": "address"
            },
            {
              "internalType": "address",
              "name": "token",
              "type": "address"
            },
            {
              "internalType": "address",
              "name": "merchant",
              "type": "address"
            },
            {
              "internalType": "uint256",
              "name": "principal",
              "type": "uint256"
            },
            {
              "internalType": "uint256",
              "name": "outstanding",
              "type": "uint256"
            },
            {
              "internalType": "uint256",
              "name": "startedAt",
              "type": "uint256"
            },
            {
              "internalType": "uint256",
              "name": "installmentsPaid",
              "type": "uint256"
            },
            {
              "internalType": "uint256",
              "name": "fee",
              "type": "uint256"
            },
            {
              "internalType": "uint256",
              "name": "totalPaid",
              "type": "uint256"
            },
            {
              "internalType": "bool",
              "name": "active",
              "type": "bool"
            },
            {
              "internalType": "bool",
              "name": "disbursed",
              "type": "bool"
            }
          ],
          "internalType": "struct VaultLending.Loan[]",
          "name": "",
          "type": "tuple[]"
        }
      ],
      "stateMutability": "view",
      "type": "function"
    },
    {
      "inputs": [
        {
          "internalType": "address",
          "name": "token",
          "type": "address"
        }
      ],
      "name": "getProtocolStats",
      "outputs": [
        {
          "internalType": "uint256",
          "name": "numLenders",
          "type": "uint256"
        },
        {
          "internalType": "uint256",
          "name": "numBorrowers",
          "type": "uint256"
        },
        {
          "internalType": "uint256",
          "name": "totalLenderDeposits",
          "type": "uint256"
        },
        {
          "internalType": "uint256",
          "name": "totalBorrowed",
          "type": "uint256"
        },
        {
          "internalType": "uint256",
          "name": "totalOutstanding",
          "type": "uint256"
        },
        {
          "internalType": "uint256",
          "name": "totalPaid",
          "type": "uint256"
        }
      ],
      "stateMutability": "view",
      "type": "function"
    },
    {
      "inputs": [
        {
          "internalType": "address",
          "name": "borrower",
          "type": "address"
        }
      ],
      "name": "getTotalOutstanding",
      "outputs": [
        {
          "internalType": "uint256",
          "name": "",
          "type": "uint256"
        }
      ],
      "stateMutability": "view",
      "type": "function"
    },
    {
      "inputs": [
        {
          "internalType": "address",
          "name": "lender",
          "type": "address"
        },
        {
          "internalType": "address",
          "name": "token",
          "type": "address"
        }
      ],
      "name": "getWithdrawableFees",
      "outputs": [
        {
          "internalType": "uint256",
          "name": "",
          "type": "uint256"
        }
      ],
      "stateMutability": "view",
      "type": "function"
    },
    {
      "inputs": [
        {
          "internalType": "address",
          "name": "",
          "type": "address"
        },
        {
          "internalType": "address",
          "name": "",
          "type": "address"
        }
      ],
      "name": "lenderContribution",
      "outputs": [
        {
          "internalType": "uint256",
          "name": "",
          "type": "uint256"
        }
      ],
      "stateMutability": "view",
      "type": "function"
    },
    {
      "inputs": [
        {
          "internalType": "bytes32",
          "name": "",
          "type": "bytes32"
        }
      ],
      "name": "loans",
      "outputs": [
        {
          "internalType": "bytes32",
          "name": "ref",
          "type": "bytes32"
        },
        {
          "internalType": "address",
          "name": "borrower",
          "type": "address"
        },
        {
          "internalType": "address",
          "name": "token",
          "type": "address"
        },
        {
          "internalType": "address",
          "name": "merchant",
          "type": "address"
        },
        {
          "internalType": "uint256",
          "name": "principal",
          "type": "uint256"
        },
        {
          "internalType": "uint256",
          "name": "outstanding",
          "type": "uint256"
        },
        {
          "internalType": "uint256",
          "name": "startedAt",
          "type": "uint256"
        },
        {
          "internalType": "uint256",
          "name": "installmentsPaid",
          "type": "uint256"
        },
        {
          "internalType": "uint256",
          "name": "fee",
          "type": "uint256"
        },
        {
          "internalType": "uint256",
          "name": "totalPaid",
          "type": "uint256"
        },
        {
          "internalType": "bool",
          "name": "active",
          "type": "bool"
        },
        {
          "internalType": "bool",
          "name": "disbursed",
          "type": "bool"
        }
      ],
      "stateMutability": "view",
      "type": "function"
    },
    {
      "inputs": [],
      "name": "pause",
      "outputs": [],
      "stateMutability": "nonpayable",
      "type": "function"
    },
    {
      "inputs": [],
      "name": "paused",
      "outputs": [
        {
          "internalType": "bool",
          "name": "",
          "type": "bool"
        }
      ],
      "stateMutability": "view",
      "type": "function"
    },
    {
      "inputs": [
        {
          "internalType": "address",
          "name": "",
          "type": "address"
        }
      ],
      "name": "pool",
      "outputs": [
        {
          "internalType": "uint256",
          "name": "",
          "type": "uint256"
        }
      ],
      "stateMutability": "view",
      "type": "function"
    },
    {
      "inputs": [
        {
          "internalType": "bytes32",
          "name": "ref",
          "type": "bytes32"
        },
        {
          "internalType": "uint256",
          "name": "amount",
          "type": "uint256"
        }
      ],
      "name": "repayLoan",
      "outputs": [],
      "stateMutability": "nonpayable",
      "type": "function"
    },
    {
      "inputs": [
        {
          "internalType": "address",
          "name": "user",
          "type": "address"
        },
        {
          "internalType": "bool",
          "name": "status",
          "type": "bool"
        }
      ],
      "name": "setBlacklist",
      "outputs": [],
      "stateMutability": "nonpayable",
      "type": "function"
    },
    {
      "inputs": [
        {
          "internalType": "address",
          "name": "user",
          "type": "address"
        },
        {
          "internalType": "bool",
          "name": "status",
          "type": "bool"
        }
      ],
      "name": "setWhitelist",
      "outputs": [],
      "stateMutability": "nonpayable",
      "type": "function"
    },
    {
      "inputs": [
        {
          "internalType": "address",
          "name": "",
          "type": "address"
        }
      ],
      "name": "totalPoolContribution",
      "outputs": [
        {
          "internalType": "uint256",
          "name": "",
          "type": "uint256"
        }
      ],
      "stateMutability": "view",
      "type": "function"
    },
    {
      "inputs": [],
      "name": "unpause",
      "outputs": [],
      "stateMutability": "nonpayable",
      "type": "function"
    },
    {
      "inputs": [
        {
          "internalType": "address",
          "name": "",
          "type": "address"
        },
        {
          "internalType": "address",
          "name": "",
          "type": "address"
        }
      ],
      "name": "vault",
      "outputs": [
        {
          "internalType": "uint256",
          "name": "",
          "type": "uint256"
        }
      ],
      "stateMutability": "view",
      "type": "function"
    },
    {
      "inputs": [
        {
          "internalType": "address",
          "name": "",
          "type": "address"
        }
      ],
      "name": "whitelist",
      "outputs": [
        {
          "internalType": "bool",
          "name": "",
          "type": "bool"
        }
      ],
      "stateMutability": "view",
      "type": "function"
    },
    {
      "inputs": [
        {
          "internalType": "address",
          "name": "token",
          "type": "address"
        }
      ],
      "name": "withdrawFees",
      "outputs": [],
      "stateMutability": "nonpayable",
      "type": "function"
    },
    {
      "inputs": [
        {
          "internalType": "address",
          "name": "token",
          "type": "address"
        },
        {
          "internalType": "uint256",
          "name": "amount",
          "type": "uint256"
        }
      ],
      "name": "withdrawFromVault",
      "outputs": [],
      "stateMutability": "nonpayable",
      "type": "function"
    }
  ],
  "bytecode": "0x60a0346100ea57601f61273538819003918201601f19168301916001600160401b038311848410176100ee578084926020946040528339810103126100ea57516001600160a01b038116908190036100ea5760015f5580156100a55760805260016002556040516126329081610103823960805181818161051201528181610901015281816112290152818161144c0152818161163c01528181611fe6015261208a0152f35b60405162461bcd60e51b815260206004820152601660248201527f496e76616c69642061636365737320636f6e74726f6c000000000000000000006044820152606490fd5b5f80fd5b634e487b7160e01b5f52604160045260245ffdfe60806040526004361015610011575f80fd5b5f3560e01c80630351493a146120b957806313007d5514612075578063153b0d1e14611fbb578063156522a814611f83578063164e68de14611e165780631b54cc8814611dc657806321116f4e14611b0c57806327c2f17c1461172957806332abcdbe146116ac5780633f4ba83a14611611578063429043ed146114ff57806353d6fd59146114215780635c975abb146113ff5780635cd436e5146113435780636c92b2f8146112f35780637ef92877146112bb5780638456cb59146111fe57806394020028146111d257806398ef646414610fc05780639b19251a14610f83578063a1666b5414610ef6578063a3d1115814610d18578063bf2d3912146108cf578063c4a908151461080b578063c4e4359e146104b9578063ce88875d1461048e578063d988ef20146101d1578063f9f92be4146101945763fd83a64f14610158575f80fd5b34610190576020366003190112610190576001600160a01b03610179612109565b165f52600a602052602060405f2054604051908152f35b5f80fd5b34610190576020366003190112610190576001600160a01b036101b5612109565b165f526011602052602060ff60405f2054166040519015158152f35b34610190576020366003190112610190576001600160a01b036101f2612109565b165f52600460205260405f20604051808260208294549384815201905f5260205f20925f5b81811061047557505061022c925003826121c3565b805190610238826124d3565b9161024660405193846121c3565b808352610255601f19916124d3565b015f5b8181106104125750505f5b815181101561033a5780610279600192846123a0565b515f52600360205260405f2060ff600a60405192610296846121a6565b805484528581015460a087811b88900391821660208701526002830154821660408701526003830154909116606086015260048201546080860152600582015490850152600681015460c0850152600781015460e085015260088082015461010086015260098201546101208601529101548281161515610140850152901c16151561016082015261032882866123a0565b5261033381856123a0565b5001610263565b826040518091602082016020835281518091526020604084019201905f5b818110610366575050500390f35b919350916020610180600192610160875180518352858060a01b03858201511685840152858060a01b036040820151166040840152858060a01b0360608201511660608401526080810151608084015260a081015160a084015260c081015160c084015260e081015160e0840152610100810151610100840152610120810151610120840152610140810151151561014084015201511515610160820152019401910191849392610358565b602090604051610421816121a6565b5f81525f838201525f60408201525f60608201525f60808201525f60a08201525f60c08201525f60e08201525f6101008201525f6101208201525f6101408201525f61016082015282828701015201610258565b8454835260019485019486945060209093019201610217565b346101905760203660031901126101905760206104b16104ac612109565b6124eb565b604051908152f35b346101905760c0366003190112610190576004356104d561211f565b60443591906001600160a01b038316830361019057604051638b7ac4d560e01b815233600482015260a435916084359160643591906020816024817f00000000000000000000000000000000000000000000000000000000000000006001600160a01b03165afa801561080057610553915f916107d1575b50612491565b60018060a01b031694855f5260096020528160405f20541061078c575f8581526003602081905260409091208681556001810180546001600160a01b0319908116331790915560028201805482168a17905591810180549092166001600160a01b0390931692909217905560048101829055600a906105d284846122f9565b60058201554260068201555f600782015583600882015584600982015501600161ffff19825416179055335f52600460205260405f2054845f52600560205260405f2055335f52600460205260405f208054600160401b81101561077857610644818793600161065a9401815561247c565b819391549060031b91821b915f19901b19161790565b9055335f52600c60205260ff60405f205416156106f4575b9060a0939291857fe960062a0ba868077d9ca9d5a3ba16f32ee978fef2a58df3e1385a6f7f3d6a14965f52600960205260405f206106b1838254612306565b9055335f52600660205260405f20905f5260205260405f206106d48282546122f9565b9055604051938452336020850152604084015260608301526080820152a1005b929190600d5493600160401b851015610778577fe960062a0ba868077d9ca9d5a3ba16f32ee978fef2a58df3e1385a6f7f3d6a149561073d86600160a09801600d55600d61247c565b81549060031b9033821b916001808b1b03901b1916179055335f52600c60205260405f20600160ff1982541617905595509091929350610672565b634e487b7160e01b5f52604160045260245ffd5b60405162461bcd60e51b815260206004820152601b60248201527f496e73756666696369656e7420706f6f6c206c697175696469747900000000006044820152606490fd5b6107f3915060203d6020116107f9575b6107eb81836121c3565b8101906121e5565b8861054d565b503d6107e1565b6040513d5f823e3d90fd5b34610190576020366003190112610190576004355f52600360205261018060405f2060ff81549160018060a01b036001820154169060018060a01b0360028201541660018060a01b0360038301541660048301546005840154600685015491600786015493600887015495600a6009890154980154986040519b8c5260208c015260408b015260608a0152608089015260a088015260c087015260e0860152610100850152610120840152818116151561014084015260081c161515610160820152f35b3461019057602036600319011261019057604051638b7ac4d560e01b81523360048281019190915235906020816024817f00000000000000000000000000000000000000000000000000000000000000006001600160a01b03165afa801561080057610941915f91610cf95750612491565b805f52601260205260ff60405f205416610cb457805f52601260205260405f20600160ff19825416179055805f52600360205260ff600a60405f2001541615610c7d57805f52600360205260405f20600a810180549160ff8360081c16610c3f5760038101546001600160a01b03168015610bfa5760028201546001600160a01b0316918215610bbd576004810154908115610b84576008015480821115610b7b576109ec91612306565b925b8315610b43576040516370a0823160e01b815230600482015294602086602481875afa958615610800575f96610b03575b509061010085949392610a39602097610a78991015612313565b61ff00191617905560405163a9059cbb60e01b81526001600160a01b0390911660048201526024810192909252909283919082905f9082906044820190565b03925af1908115610800575f91610ae4575b5015610aa7575f908152601260205260409020805460ff19169055005b60405162461bcd60e51b8152602060048201526015602482015274151bdad95b881d1c985b9cd9995c8819985a5b1959605a1b6044820152606490fd5b610afd915060203d6020116107f9576107eb81836121c3565b82610a8a565b9550939291906020863d602011610b3b575b81610b22602093836121c3565b8101031261019057945194929391929091610100610a1f565b3d9150610b15565b60405162461bcd60e51b815260206004820152601060248201526f139bc8199d5b991cc81d1bc81cd95b9960821b6044820152606490fd5b50505f926109ee565b60405162461bcd60e51b8152602060048201526011602482015270125b9d985b1a59081c1c9a5b98da5c185b607a1b6044820152606490fd5b60405162461bcd60e51b8152602060048201526015602482015274496e76616c696420746f6b656e206164647265737360581b6044820152606490fd5b60405162461bcd60e51b815260206004820152601860248201527f496e76616c6964206d65726368616e74206164647265737300000000000000006044820152606490fd5b60405162461bcd60e51b8152602060048201526016602482015275131bd85b88185b1c9958591e48191a5cd89d5c9cd95960521b6044820152606490fd5b60405162461bcd60e51b815260206004820152600f60248201526e4c6f616e206e6f742061637469766560881b6044820152606490fd5b60405162461bcd60e51b815260206004820152601c60248201527f5265656e7472616e637947756172643a206c6f616e206c6f636b6564000000006044820152606490fd5b610d12915060203d6020116107f9576107eb81836121c3565b8361054d565b3461019057604036600319011261019057610d31612109565b60243590610d4082151561235f565b6040516323b872dd60e01b8152336004820152306024820152604481018390526001600160a01b039190911691906020816064815f875af1801561080057610ed9575b50815f52600a602052670de0b6b3a7640000610da360405f2054836123b4565b04335f52600b60205260405f20835f52602052610dc560405f209182546122f9565b9055335f52600660205260405f20825f5260205260405f20610de88282546122f9565b9055335f52600760205260405f20825f5260205260405f20610e0b8282546122f9565b9055815f52600860205260405f20610e248282546122f9565b9055815f52600960205260405f20610e3d8282546122f9565b9055335f52600e60205260ff60405f20541615610e83575b6040519081527f5548c837ab068cf56a2c2479df0882a4922fd203edb7517321831d95078c5f6260203392a3005b600f54600160401b81101561077857806001610ea49201600f55600f61247c565b81549060031b9033821b9160018060a01b03901b1916179055335f52600e60205260405f20600160ff19825416179055610e55565b610ef19060203d6020116107f9576107eb81836121c3565b610d83565b34610190575f36600319011261019057604051806020600f54918281520190600f5f527f8d1108e10bcb7c27dddfc02ed9d693a074039d026cf4ea4240b40f7d581ac802905f5b818110610f6457610f6085610f54818703826121c3565b60405191829182612164565b0390f35b82546001600160a01b0316845260209093019260019283019201610f3d565b34610190576020366003190112610190576001600160a01b03610fa4612109565b165f526010602052602060ff60405f2054166040519015158152f35b3461019057602036600319011261019057610fd9612109565b600f546001600160a01b03909116905f80825b83821061116d575050600d54905f5f915f935f600d545b82821061103157505060c09650604051958652602086015260408501526060840152608083015260a0820152f35b909697925f969594965081881015611159577fd7b6990105719101dabeb77144f2a3385c8033acd3af97e9423a695e81ad1eb58801546001600160a01b03165f908152600460209081526040808320905181548082529184528284209096939092879290830191905b80821061113d5750506110af925003856121c3565b5f5b8451811015611129576110c481866123a0565b515f90815260036020526040902060028101546001600160a01b031687146110f0575b506001016110b1565b969860019198600961111961110d6111229460048d0154906122f9565b9c60058c0154906122f9565b990154906122f9565b97906110e7565b509250929796600190969495960190611003565b916001919350602082918654815201940192018792939161109a565b634e487b7160e01b5f52603260045260245ffd5b909181831015611159577f8d1108e10bcb7c27dddfc02ed9d693a074039d026cf4ea4240b40f7d581ac8028301546001600160a01b03165f9081526006602090815260408083208884529091529020546001916111ca91906122f9565b920190610fec565b346101905760403660031901126101905760206104b16111f0612109565b6111f861211f565b906123c7565b34610190575f36600319011261019057604051630935e01b60e21b81523360048201526020816024817f00000000000000000000000000000000000000000000000000000000000000006001600160a01b03165afa80156108005761126a915f9161129c575b506121fd565b600160ff19815416176001557f9e87fac88ff661f02d44f95383c817fece4bce600a3dab7a54406878b965e7525f80a1005b6112b5915060203d6020116107f9576107eb81836121c3565b82611264565b34610190576020366003190112610190576001600160a01b036112dc612109565b165f526008602052602060405f2054604051908152f35b346101905760403660031901126101905761130c612109565b61131461211f565b6001600160a01b039182165f908152600b60209081526040808320949093168252928352819020549051908152f35b3461019057604036600319011261019057608061135e612109565b61136661211f565b6001600160a01b039182165f8181526006602090815260408083209590941680835294815283822054838352600b82528483208684528252848320549383526007825284832095835294815283822054600a909152929020549091670de0b6b3a7640000916113d4916123b4565b046113e86113e28383612306565b846122f9565b604051938452602084015260408301526060820152f35b34610190575f36600319011261019057602060ff600154166040519015158152f35b346101905761142f36612135565b604051630935e01b60e21b815233600482015290916020826024817f00000000000000000000000000000000000000000000000000000000000000006001600160a01b03165afa908115610800576114b16020927fa54714518c5d275fdcd3d2a461e4858e4e8cb04fb93cd0bca9d6d34115f26440945f916114e257506121fd565b6001600160a01b03165f8181526010835260409020805460ff191660ff86151516179055925b6040519015158152a2005b6114f99150843d86116107f9576107eb81836121c3565b86611264565b3461019057604036600319011261019057611518612109565b61152061211f565b9060018060a01b031690815f52600660205260405f2060018060a01b0382165f5260205260405f2054905f925f52600460205260405f206040519081602082549182815201915f5260205f20905f5b8181106115fb57505050816115859103826121c3565b6001600160a01b03909116905f5b81518110156115eb576115a681836123a0565b515f90815260036020526040902060028101546001600160a01b031684146115d2575b50600101611593565b6001919560096115e4920154906122f9565b94906115c9565b6040848682519182526020820152f35b825484526020909301926001928301920161156f565b34610190575f36600319011261019057604051630935e01b60e21b81523360048201526020816024817f00000000000000000000000000000000000000000000000000000000000000006001600160a01b03165afa80156108005761167c915f9161129c57506121fd565b60ff19600154166001557fa45f47fdea8a1efdd9029a5691c7f759c32b7c698632b563573e155625d169335f80a1005b34610190575f36600319011261019057604051806020600d54918281520190600d5f527fd7b6990105719101dabeb77144f2a3385c8033acd3af97e9423a695e81ad1eb5905f5b81811061170a57610f6085610f54818703826121c3565b82546001600160a01b03168452602090930192600192830192016116f3565b346101905760403660031901126101905760043560243590805f52600360205260405f2091600a830160ff81541615611ad65760018401546001600160a01b03163303611aa25761177b82151561235f565b335f9081526006602090815260408083206002880180546001600160a01b031680865291909352922054909591849180611a54575b5050806119dc575b506008810180546117d8966117e9928683106119d2578698898094612306565b9055546001600160a01b0316612560565b6117f38584612306565b9260058201918254808610156119b2575b61182a9161181e6009926118188b8a6122f9565b90612306565b809555019182546122f9565b90551561187a575b7fcfe13b548fc1743507f7dd02d10678df3bae7b86124955c0f831db4622146f956080848661186181876122f9565b60405192835233602084015260408301526060820152a1005b805460ff191690555f82815260056020908152604080832054338452600490925290912080549293925f19810190811161199e576118b79161247c565b90549060031b1c335f526004602052806118d76106448460405f2061247c565b90555f52600560205260405f2055335f52600460205260405f2092835493841561198a5781608094611861927fcfe13b548fc1743507f7dd02d10678df3bae7b86124955c0f831db4622146f95975f190190611933828261247c565b8154905f199060031b1b1916905555845f5260056020525f60408120557f27810a468d84d73b8240e706dd0a124a8ce3778bc6ebb13d643a61efcd26f1f060408051878152336020820152a1939450945050611832565b634e487b7160e01b5f52603160045260245ffd5b634e487b7160e01b5f52601160045260245ffd5b9450600961182a9161181e6119c78a89612306565b979250509150611804565b8298898094612306565b85546040516323b872dd60e01b81523360048201523060248201526044810192909252909590602090879060649082905f906001600160a01b03165af1908115610800576117d8966117e992611a35575b5095506117b8565b611a4d9060203d6020116107f9576107eb81836121c3565b5087611a2d565b611a959250858110611a9c575084905b335f52600660205260405f209060018060a01b03165f5260205260405f20611a8d828254612306565b905584612306565b86806117b0565b90611a64565b60405162461bcd60e51b815260206004820152600c60248201526b2737ba103137b93937bbb2b960a11b6044820152606490fd5b60405162461bcd60e51b815260206004820152600e60248201526d131bd85b881a5cc818db1bdcd95960921b6044820152606490fd5b3461019057604036600319011261019057611b25612109565b60243590611b3860ff6001541615612236565b335f526011602052611b5160ff60405f20541615612274565b335f526010602052611b6960ff60405f2054166122b6565b335f52600660205260405f2060018060a01b0382165f52602052611b938260405f20541015612313565b611b9c336124eb565b611d8a57335f52600660205260405f2060018060a01b0382165f5260205260405f20611bc9838254612306565b9055335f52600760205260405f2060018060a01b0382165f526020528160405f20541015611d1c575b60405163a9059cbb60e01b60208201908152336024830152604480830185905282526001600160a01b039290921692915f91829190611c326064826121c3565b519082865af13d15611d15573d67ffffffffffffffff81116107785760405190611c66601f8201601f1916602001836121c3565b81523d5f602083013e5b81611ce6575b5015611caa576040519081527f9b1bfa7fa9ee420a16e124f794c35ac9f90472acc99140eb2f6447c714cad8eb60203392a3005b60405162461bcd60e51b815260206004820152601460248201527314d85999551c985b9cd9995c8e8819985a5b195960621b6044820152606490fd5b8051801592508215611cfb575b505083611c76565b611d0e92506020809183010191016121e5565b8380611cf3565b6060611c70565b335f52600760205260405f2060018060a01b0382165f5260205260405f20611d45838254612306565b90556001600160a01b0381165f8181526008602052604090208054611d6b908590612306565b90555f52600960205260405f20611d83838254612306565b9055611bf2565b60405162461bcd60e51b81526020600482015260146024820152733430b99037baba39ba30b73234b733903637b0b760611b6044820152606490fd5b3461019057604036600319011261019057611ddf612109565b611de761211f565b6001600160a01b039182165f908152600660209081526040808320949093168252928352819020549051908152f35b3461019057602036600319011261019057611e2f612109565b611e3e60ff6001541615612236565b335f526011602052611e5760ff60405f20541615612274565b335f526010602052611e6f60ff60405f2054166122b6565b611e7981336123c7565b908115611f4857335f52600b60205260405f2060018060a01b0382165f5260205260405f20611ea98382546122f9565b905560018060a01b031690815f52600960205260405f20611ecb828254612306565b905560405163a9059cbb60e01b8152336004820152602481018290526020816044815f875af1801561080057611f2b575b506040519081527f5e110f8bc8a20b65dcc87f224bdf1cc039346e267118bae2739847f07321ffa860203392a3005b611f439060203d6020116107f9576107eb81836121c3565b611efc565b60405162461bcd60e51b81526020600482015260136024820152724e6f206665657320746f20776974686472617760681b6044820152606490fd5b34610190576020366003190112610190576001600160a01b03611fa4612109565b165f526009602052602060405f2054604051908152f35b3461019057611fc936612135565b604051630935e01b60e21b815233600482015290916020826024817f00000000000000000000000000000000000000000000000000000000000000006001600160a01b03165afa9081156108005761204b6020927fcf3473b85df1594d47b6958f29a32bea0abff9dd68296f7bf33443646793cfd8945f916114e257506121fd565b6001600160a01b03165f8181526011835260409020805460ff191660ff86151516179055926114d7565b34610190575f366003190112610190576040517f00000000000000000000000000000000000000000000000000000000000000006001600160a01b03168152602090f35b34610190576040366003190112610190576120d2612109565b6120da61211f565b6001600160a01b039182165f908152600760209081526040808320949093168252928352819020549051908152f35b600435906001600160a01b038216820361019057565b602435906001600160a01b038216820361019057565b6040906003190112610190576004356001600160a01b0381168103610190579060243580151581036101905790565b60206040818301928281528451809452019201905f5b8181106121875750505090565b82516001600160a01b031684526020938401939092019160010161217a565b610180810190811067ffffffffffffffff82111761077857604052565b90601f8019910116810190811067ffffffffffffffff82111761077857604052565b90816020910312610190575180151581036101905790565b1561220457565b60405162461bcd60e51b815260206004820152600a60248201526927b7363c9030b236b4b760b11b6044820152606490fd5b1561223d57565b60405162461bcd60e51b815260206004820152600f60248201526e10dbdb9d1c9858dd081c185d5cd959608a1b6044820152606490fd5b1561227b57565b60405162461bcd60e51b8152602060048201526013602482015272155cd95c881a5cc8189b1858dadb1a5cdd1959606a1b6044820152606490fd5b156122bd57565b60405162461bcd60e51b8152602060048201526014602482015273155cd95c881b9bdd081dda1a5d195b1a5cdd195960621b6044820152606490fd5b9190820180921161199e57565b9190820391821161199e57565b1561231a57565b60405162461bcd60e51b815260206004820152601a60248201527f496e73756666696369656e74207661756c742062616c616e63650000000000006044820152606490fd5b1561236657565b60405162461bcd60e51b81526020600482015260126024820152710416d6f756e74206d757374206265203e20360741b6044820152606490fd5b80518210156111595760209160051b010190565b8181029291811591840414171561199e57565b60018060a01b031690815f52600760205260405f2060018060a01b0382165f5260205260405f20548015612475576001600160a01b0382165f908152600a6020526040902054670de0b6b3a76400009161242191906123b4565b0490825f52600b60205260405f2060018060a01b0382165f5260205260405f205482115f1461247557612472925f52600b60205260405f209060018060a01b03165f5260205260405f205490612306565b90565b5050505f90565b8054821015611159575f5260205f2001905f90565b1561249857565b60405162461bcd60e51b815260206004820152601360248201527227b7363c9031b932b234ba1037b33334b1b2b960691b6044820152606490fd5b67ffffffffffffffff81116107785760051b60200190565b6001600160a01b03165f908152600460205260408120805491929190835b82811061251557505050565b61251f818361247c565b90549060031b1c5f52600360205260405f2060ff600a82015416612547575b50600101612509565b600191956005612559920154906122f9565b949061253e565b6001600160a01b03165f81815260086020526040902054156125f857670de0b6b3a76400008202828104670de0b6b3a7640000148315171561199e57815f52600860205260405f20549081156125e45704815f52600a6020526125c860405f209182546122f9565b90555f5260096020526125e060405f209182546122f9565b9055565b634e487b7160e01b5f52601260045260245ffd5b505056fea2646970667358221220163f5b3c4cfeb2606be704dc654614d37f3c4b8d8206b16e721952653bd13f1764736f6c634300081c0033",
  "linkReferences": {},
  "deployedLinkReferences": {},
  "immutableReferences": {
    "104": [
      {
        "length": 32,
        "start": 1298
      },
      {
        "length": 32,
        "start": 2305
      },
      {
        "length": 32,
        "start": 4649
      },
      {
        "length": 32,
        "start": 5196
      },
      {
        "length": 32,
        "start": 5692
      },
      {
        "length": 32,
        "start": 8166
      },
      {
        "length": 32,
        "start": 8330
      }
    ]
  },
  "inputSourceName": "project/contracts/VaultLending.sol",
  "buildInfoId": "solc-0_8_28-9e36262c65d25b6f29a878825412f73f5076e9b7"
}