{
  "_format": "hh3-artifact-1",
  "contractName": "TradeEscrowVault",
  "sourceName": "contracts/TradeEscrowVault.sol",
  "abi": [
    {
      "inputs": [
        {
          "internalType": "address",
          "name": "_accessControl",
          "type": "address"
        }
      ],
      "stateMutability": "nonpayable",
      "type": "constructor"
    },
    {
      "anonymous": false,
      "inputs": [
        {
          "indexed": true,
          "internalType": "bytes32",
          "name": "ref",
          "type": "bytes32"
        },
        {
          "indexed": true,
          "internalType": "address",
          "name": "caller",
          "type": "address"
        }
      ],
      "name": "AppealCreated",
      "type": "event"
    },
    {
      "anonymous": false,
      "inputs": [
        {
          "indexed": true,
          "internalType": "bytes32",
          "name": "ref",
          "type": "bytes32"
        },
        {
          "indexed": false,
          "internalType": "bool",
          "name": "released",
          "type": "bool"
        }
      ],
      "name": "AppealResolved",
      "type": "event"
    },
    {
      "anonymous": false,
      "inputs": [
        {
          "indexed": true,
          "internalType": "address",
          "name": "user",
          "type": "address"
        },
        {
          "indexed": false,
          "internalType": "bool",
          "name": "status",
          "type": "bool"
        }
      ],
      "name": "Blacklisted",
      "type": "event"
    },
    {
      "anonymous": false,
      "inputs": [
        {
          "indexed": true,
          "internalType": "bytes32",
          "name": "ref",
          "type": "bytes32"
        }
      ],
      "name": "OfferCancelled",
      "type": "event"
    },
    {
      "anonymous": false,
      "inputs": [
        {
          "indexed": true,
          "internalType": "bytes32",
          "name": "ref",
          "type": "bytes32"
        },
        {
          "indexed": true,
          "internalType": "address",
          "name": "creator",
          "type": "address"
        },
        {
          "indexed": true,
          "internalType": "address",
          "name": "counterparty",
          "type": "address"
        },
        {
          "indexed": false,
          "internalType": "uint256",
          "name": "tokenAmount",
          "type": "uint256"
        },
        {
          "indexed": false,
          "internalType": "address",
          "name": "token",
          "type": "address"
        },
        {
          "indexed": false,
          "internalType": "bool",
          "name": "isBuy",
          "type": "bool"
        },
        {
          "indexed": false,
          "internalType": "uint32",
          "name": "expiry",
          "type": "uint32"
        },
        {
          "indexed": false,
          "internalType": "bytes3",
          "name": "fiatSymbol",
          "type": "bytes3"
        },
        {
          "indexed": false,
          "internalType": "uint64",
          "name": "fiatAmount",
          "type": "uint64"
        },
        {
          "indexed": false,
          "internalType": "uint64",
          "name": "fiatToTokenRate",
          "type": "uint64"
        }
      ],
      "name": "OfferCreated",
      "type": "event"
    },
    {
      "anonymous": false,
      "inputs": [
        {
          "indexed": true,
          "internalType": "bytes32",
          "name": "ref",
          "type": "bytes32"
        }
      ],
      "name": "OfferMarkedPaid",
      "type": "event"
    },
    {
      "anonymous": false,
      "inputs": [
        {
          "indexed": true,
          "internalType": "bytes32",
          "name": "ref",
          "type": "bytes32"
        }
      ],
      "name": "OfferReleased",
      "type": "event"
    },
    {
      "anonymous": false,
      "inputs": [],
      "name": "Paused",
      "type": "event"
    },
    {
      "anonymous": false,
      "inputs": [],
      "name": "Unpaused",
      "type": "event"
    },
    {
      "anonymous": false,
      "inputs": [
        {
          "indexed": true,
          "internalType": "address",
          "name": "user",
          "type": "address"
        },
        {
          "indexed": false,
          "internalType": "bool",
          "name": "status",
          "type": "bool"
        }
      ],
      "name": "Whitelisted",
      "type": "event"
    },
    {
      "inputs": [],
      "name": "accessControl",
      "outputs": [
        {
          "internalType": "contract IAccessControlModule",
          "name": "",
          "type": "address"
        }
      ],
      "stateMutability": "view",
      "type": "function"
    },
    {
      "inputs": [
        {
          "internalType": "address",
          "name": "",
          "type": "address"
        }
      ],
      "name": "blacklist",
      "outputs": [
        {
          "internalType": "bool",
          "name": "",
          "type": "bool"
        }
      ],
      "stateMutability": "view",
      "type": "function"
    },
    {
      "inputs": [
        {
          "internalType": "bytes32",
          "name": "ref",
          "type": "bytes32"
        }
      ],
      "name": "cancelOffer",
      "outputs": [],
      "stateMutability": "nonpayable",
      "type": "function"
    },
    {
      "inputs": [
        {
          "internalType": "bytes32",
          "name": "ref",
          "type": "bytes32"
        }
      ],
      "name": "createAppeal",
      "outputs": [],
      "stateMutability": "nonpayable",
      "type": "function"
    },
    {
      "inputs": [
        {
          "internalType": "bytes32",
          "name": "ref",
          "type": "bytes32"
        },
        {
          "internalType": "address",
          "name": "counterparty",
          "type": "address"
        },
        {
          "internalType": "address",
          "name": "token",
          "type": "address"
        },
        {
          "internalType": "bool",
          "name": "isBuy",
          "type": "bool"
        },
        {
          "internalType": "uint32",
          "name": "expiry",
          "type": "uint32"
        },
        {
          "internalType": "string",
          "name": "fiatSymbol",
          "type": "string"
        },
        {
          "internalType": "uint64",
          "name": "fiatAmount",
          "type": "uint64"
        },
        {
          "internalType": "uint64",
          "name": "fiatToTokenRate",
          "type": "uint64"
        }
      ],
      "name": "createOffer",
      "outputs": [],
      "stateMutability": "nonpayable",
      "type": "function"
    },
    {
      "inputs": [
        {
          "internalType": "bytes32",
          "name": "ref",
          "type": "bytes32"
        }
      ],
      "name": "getOffer",
      "outputs": [
        {
          "internalType": "address",
          "name": "creator",
          "type": "address"
        },
        {
          "internalType": "address",
          "name": "counterparty",
          "type": "address"
        },
        {
          "internalType": "address",
          "name": "token",
          "type": "address"
        },
        {
          "internalType": "bool",
          "name": "isBuy",
          "type": "bool"
        },
        {
          "internalType": "uint32",
          "name": "expiry",
          "type": "uint32"
        },
        {
          "internalType": "bytes3",
          "name": "fiatSymbol",
          "type": "bytes3"
        },
        {
          "internalType": "uint64",
          "name": "fiatAmount",
          "type": "uint64"
        },
        {
          "internalType": "uint64",
          "name": "fiatToTokenRate",
          "type": "uint64"
        },
        {
          "internalType": "bool",
          "name": "appealed",
          "type": "bool"
        },
        {
          "internalType": "bool",
          "name": "paid",
          "type": "bool"
        },
        {
          "internalType": "bool",
          "name": "released",
          "type": "bool"
        },
        {
          "internalType": "uint256",
          "name": "tokenAmount",
          "type": "uint256"
        }
      ],
      "stateMutability": "view",
      "type": "function"
    },
    {
      "inputs": [
        {
          "internalType": "bytes32",
          "name": "ref",
          "type": "bytes32"
        }
      ],
      "name": "markPaid",
      "outputs": [],
      "stateMutability": "nonpayable",
      "type": "function"
    },
    {
      "inputs": [
        {
          "internalType": "bytes32",
          "name": "",
          "type": "bytes32"
        }
      ],
      "name": "offers",
      "outputs": [
        {
          "internalType": "address",
          "name": "creator",
          "type": "address"
        },
        {
          "internalType": "address",
          "name": "counterparty",
          "type": "address"
        },
        {
          "internalType": "address",
          "name": "token",
          "type": "address"
        },
        {
          "internalType": "bool",
          "name": "isBuy",
          "type": "bool"
        },
        {
          "internalType": "bool",
          "name": "paid",
          "type": "bool"
        },
        {
          "internalType": "bool",
          "name": "released",
          "type": "bool"
        },
        {
          "internalType": "uint32",
          "name": "expiry",
          "type": "uint32"
        },
        {
          "internalType": "uint64",
          "name": "fiatAmount",
          "type": "uint64"
        },
        {
          "internalType": "uint64",
          "name": "fiatToTokenRate",
          "type": "uint64"
        },
        {
          "internalType": "bytes3",
          "name": "fiatSymbol",
          "type": "bytes3"
        },
        {
          "internalType": "bool",
          "name": "appealed",
          "type": "bool"
        }
      ],
      "stateMutability": "view",
      "type": "function"
    },
    {
      "inputs": [],
      "name": "pause",
      "outputs": [],
      "stateMutability": "nonpayable",
      "type": "function"
    },
    {
      "inputs": [],
      "name": "paused",
      "outputs": [
        {
          "internalType": "bool",
          "name": "",
          "type": "bool"
        }
      ],
      "stateMutability": "view",
      "type": "function"
    },
    {
      "inputs": [
        {
          "internalType": "bytes32",
          "name": "ref",
          "type": "bytes32"
        }
      ],
      "name": "releaseOffer",
      "outputs": [],
      "stateMutability": "nonpayable",
      "type": "function"
    },
    {
      "inputs": [
        {
          "internalType": "bytes32",
          "name": "ref",
          "type": "bytes32"
        },
        {
          "internalType": "bool",
          "name": "release",
          "type": "bool"
        }
      ],
      "name": "resolveAppeal",
      "outputs": [],
      "stateMutability": "nonpayable",
      "type": "function"
    },
    {
      "inputs": [
        {
          "internalType": "address",
          "name": "user",
          "type": "address"
        },
        {
          "internalType": "bool",
          "name": "status",
          "type": "bool"
        }
      ],
      "name": "setBlacklist",
      "outputs": [],
      "stateMutability": "nonpayable",
      "type": "function"
    },
    {
      "inputs": [
        {
          "internalType": "address",
          "name": "user",
          "type": "address"
        },
        {
          "internalType": "bool",
          "name": "status",
          "type": "bool"
        }
      ],
      "name": "setWhitelist",
      "outputs": [],
      "stateMutability": "nonpayable",
      "type": "function"
    },
    {
      "inputs": [],
      "name": "unpause",
      "outputs": [],
      "stateMutability": "nonpayable",
      "type": "function"
    },
    {
      "inputs": [
        {
          "internalType": "address",
          "name": "",
          "type": "address"
        }
      ],
      "name": "whitelist",
      "outputs": [
        {
          "internalType": "bool",
          "name": "",
          "type": "bool"
        }
      ],
      "stateMutability": "view",
      "type": "function"
    }
  ],
  "bytecode": "0x60a0346100e557601f6119f938819003918201601f19168301916001600160401b038311848410176100e9578084926020946040528339810103126100e557516001600160a01b038116908190036100e55780156100a057608052600180556040516118fb90816100fe82396080518181816105890152818161083201528181610b0901528181610bf801528181610f1001528181610fbc01526110600152f35b60405162461bcd60e51b815260206004820152601660248201527f496e76616c69642061636365737320636f6e74726f6c000000000000000000006044820152606490fd5b5f80fd5b634e487b7160e01b5f52604160045260245ffdfe60806040526004361015610011575f80fd5b5f3560e01c806304c6f35e1461108f57806313007d551461104b578063153b0d1e14610f7e5780633f4ba83a14610ee5578063474d3ff014610e0d5780634e7d756614610cab57806353d6fd5914610bba5780635c975abb14610b995780638456cb5914610ade5780639b19251a14610aa1578063a75756bb146107fb578063cb6ca29e14610538578063d597b8c81461043b578063defb2749146102ec578063f952279e1461010a5763f9f92be4146100c9575f80fd5b34610106576020366003190112610106576001600160a01b036100ea61155c565b165f526004602052602060ff60405f2054166040519015158152f35b5f80fd5b34610106576020366003190112610106576004355f81815260026020526040902054610140906001600160a01b031615156116ca565b61014e60ff5f541615611581565b61015b600180541461170d565b6002600155335f52600460205261017960ff60405f205416156115bf565b335f52600360205261019160ff60405f205416611601565b5f81815260026020526040902080546001600160a01b0316338190036102b85760028201549160ff8360b01c1615806102aa575b15610275576001600160401b036101f16003670de0b6b3a764000093015482808260401c1691166117fc565b16049060ff8360a01c16158061026c575b610252575b83805f5260026020525f60036040822082815582600182015582600282015501557f3f9cb69d022b6ec319f86f2df848bcce01f2fc51c9f86396779a8081cf6ca2ea5f80a260018055005b610264926001600160a01b031661181f565b818080610207565b50811515610202565b60405162461bcd60e51b815260206004820152600d60248201526c10d85b9b9bdd0818d85b98d95b609a1b6044820152606490fd5b5060ff8360a81c16156101c5565b60405162461bcd60e51b815260206004820152600c60248201526b27b7363c9031b932b0ba37b960a11b6044820152606490fd5b34610106576020366003190112610106576004355f81815260026020526040902054610322906001600160a01b031615156116ca565b61033060ff5f541615611581565b335f52600460205261034960ff60405f205416156115bf565b335f52600360205261036160ff60405f205416611601565b5f81815260026020526040902060018101546001600160a01b0316330361040257600201805460ff8160a81c166103c75760ff60a81b1916600160a81b1790557f2137eb87e7949804a4e0e1a69cee7227d9453bdca35c953b842022a5d828af545f80a2005b60405162461bcd60e51b8152602060048201526013602482015272105b1c9958591e481b585c9ad959081c185a59606a1b6044820152606490fd5b60405162461bcd60e51b81526020600482015260116024820152704f6e6c7920636f756e746572706172747960781b6044820152606490fd5b34610106576020366003190112610106576004355f52600260205261018060405f20600381015460ff6001600160401b03821692816001600160401b038460401c1693670de0b6b3a76400006001600160401b0361049987896117fc565b16049460018060a01b0384541696600260018060a01b0360018701541695015494604051988952602089015260018060a01b0385166040890152838560a01c161515606089015263ffffffff8560b81c16608089015262ffffff60e81b8360681b1660a089015260c088015260e087015260981c161515610100850152818160a81c16151561012085015260b01c161515610140830152610160820152f35b34610106576020366003190112610106576004355f8181526002602052604090205461056e906001600160a01b031615156116ca565b604051630935e01b60e21b81523360048201526020816024817f00000000000000000000000000000000000000000000000000000000000000006001600160a01b03165afa80156107f0576105ca915f916107c1575b50611691565b6105d860ff5f541615611581565b6105e5600180541461170d565b6002600155805f52600260205260405f206002810190815460ff8160a81c161561078a5760ff8160b01c166107525781546001600160a01b03165f8181526003602052604090205460ff168061072d575b61063f90611759565b5f52600460205260ff60405f2054161580610707575b61065e906117a5565b670de0b6b3a76400006001600160401b03610685600385015482808260401c1691166117fc565b16049060ff8160a01c1615806106fe575b6106da575b5050815460ff60b01b1916600160b01b17909155507fd537159b33aede12d4abc819f5078af138803fe8729a04eae844350df82353c85f80a260018055005b6001909201546106f6926001600160a01b03918216911661181f565b82808061069b565b50811515610696565b5060018201546001600160a01b03165f9081526004602052604090205460ff1615610655565b5060018301546001600160a01b03165f9081526003602052604090205460ff16610636565b60405162461bcd60e51b815260206004820152601060248201526f105b1c9958591e481c995b19585cd95960821b6044820152606490fd5b60405162461bcd60e51b815260206004820152600f60248201526e139bdd081b585c9ad959081c185a59608a1b6044820152606490fd5b6107e3915060203d6020116107e9575b6107db8183611644565b810190611679565b836105c4565b503d6107d1565b6040513d5f823e3d90fd5b3461010657604036600319011261010657600435610817611572565b604051630935e01b60e21b81523360048201526020816024817f00000000000000000000000000000000000000000000000000000000000000006001600160a01b03165afa80156107f057610872915f91610a825750611691565b5f82815260026020526040902054610894906001600160a01b031615156116ca565b6108a260ff5f541615611581565b6108af600180541461170d565b6002600155815f52600260205260405f2090600382019081549260ff8460981c1615610a515760ff60981b1984169092557fa6c893565b2cce40204bd8ee5adcd7d7b2989fa275233c080a79614ccce5924692602092908280610a3f575b610923575b50506040519015158152a260018055005b81546001600160a01b03165f818152600386526040902054670de0b6b3a7640000926001600160401b03926109909260ff1680610a1b575b61096490611759565b5f526004875260ff60405f20541615806109f6575b610982906117a5565b82808260401c1691166117fc565b1604906002810191825460ff8160a01c1615806109ed575b6109c9575b5050815460ff60b01b1916600160b01b17909155508480610912565b6001909201546109e5926001600160a01b03918216911661181f565b8580806109ad565b508115156109a8565b5060018501546001600160a01b03165f90815260048852604090205460ff1615610979565b5060018601546001600160a01b03165f90815260038952604090205460ff1661095b565b5060ff600283015460b01c161561090d565b60405162461bcd60e51b8152602060048201526009602482015268139bc8185c1c19585b60ba1b6044820152606490fd5b610a9b915060203d6020116107e9576107db8183611644565b846105c4565b34610106576020366003190112610106576001600160a01b03610ac261155c565b165f526003602052602060ff60405f2054166040519015158152f35b34610106575f36600319011261010657604051630935e01b60e21b81523360048201526020816024817f00000000000000000000000000000000000000000000000000000000000000006001600160a01b03165afa80156107f057610b49915f91610b7a5750611691565b600160ff195f5416175f557f9e87fac88ff661f02d44f95383c817fece4bce600a3dab7a54406878b965e7525f80a1005b610b93915060203d6020116107e9576107db8183611644565b826105c4565b34610106575f36600319011261010657602060ff5f54166040519015158152f35b3461010657604036600319011261010657610bd361155c565b610bdb611572565b604051630935e01b60e21b815233600482015290916020826024817f00000000000000000000000000000000000000000000000000000000000000006001600160a01b03165afa9081156107f057610c5d6020927fa54714518c5d275fdcd3d2a461e4858e4e8cb04fb93cd0bca9d6d34115f26440945f91610c8e5750611691565b6001600160a01b03165f8181526003835260409020805460ff191660ff86151516179055925b6040519015158152a2005b610ca59150843d86116107e9576107db8183611644565b866105c4565b34610106576020366003190112610106576004355f81815260026020526040902054610ce1906001600160a01b031615156116ca565b610cef60ff5f541615611581565b335f526004602052610d0860ff60405f205416156115bf565b335f526003602052610d2060ff60405f205416611601565b805f52600260205260405f2060018060a01b0381541633148015610df7575b15610dc357600301805460ff8160981c16610d8b5760ff60981b1916600160981b17905533907f8f8abce5af81d2ae8965eabf0b0898e998e2c807472c5e022857b06a7ed84e3f5f80a3005b60405162461bcd60e51b815260206004820152601060248201526f105b1c9958591e48185c1c19585b195960821b6044820152606490fd5b60405162461bcd60e51b815260206004820152600c60248201526b4f6e6c79207061727469657360a01b6044820152606490fd5b5060018101546001600160a01b03163314610d3f565b34610106576020366003190112610106576004355f52600260205261016060405f2060ff60018060a01b038254169163ffffffff60018060a01b03600183015416916003600282015491015492604051958652602086015260018060a01b0381166040860152838160a01c1615156060860152838160a81c1615156080860152838160b01c16151560a086015260b81c1660c08401526001600160401b03811660e08401526001600160401b038160401c1661010084015262ffffff60e81b8160681b1661012084015260981c161515610140820152f35b34610106575f36600319011261010657604051630935e01b60e21b81523360048201526020816024817f00000000000000000000000000000000000000000000000000000000000000006001600160a01b03165afa80156107f057610f50915f91610b7a5750611691565b60ff195f54165f557fa45f47fdea8a1efdd9029a5691c7f759c32b7c698632b563573e155625d169335f80a1005b3461010657604036600319011261010657610f9761155c565b610f9f611572565b604051630935e01b60e21b815233600482015290916020826024817f00000000000000000000000000000000000000000000000000000000000000006001600160a01b03165afa9081156107f0576110216020927fcf3473b85df1594d47b6958f29a32bea0abff9dd68296f7bf33443646793cfd8945f91610c8e5750611691565b6001600160a01b03165f8181526004835260409020805460ff191660ff8615151617905592610c83565b34610106575f366003190112610106576040517f00000000000000000000000000000000000000000000000000000000000000006001600160a01b03168152602090f35b3461010657610100366003190112610106576024356001600160a01b0381169060043590829003610106576044356001600160a01b03811691908290036101065760643591821580158094036101065760843563ffffffff81168082036101065760a435956001600160401b0387116101065736602388011215610106578660040135946001600160401b03861161010657366024878a0101116101065760c435946001600160401b0386168096036101065760e4356001600160401b038116978882036101065761116560ff5f541615611581565b335f52600460205261117e60ff60405f205416156115bf565b8b5f52600460205261119760ff60405f205416156115bf565b335f5260036020526111af60ff60405f205416611601565b8915611529575f8a8152600260205260409020546001600160a01b03166114f5578b156114b9574286111561147c57881561144857600303611403578787028781048914881517156113ef57670de0b6b3a7640000602491049a013595895f52600260205260405f2060018060a01b0333166001600160601b0360a01b825416178155600181018d6001600160601b0360a01b8254161790556002810192856001600160601b0360a01b855416178455600384549201906fffffffffffffffff0000000000000000825460ff60981b199062ffffff60801b8d62ffffff60801b9060681c1616906cffffffffffffffffffffffffff60981b1617168c179160401b1617905560ff60b01b199060ff60a01b8760a01b169066ffffffff00ffff60a01b191617169063ffffffff60b81b9060b81b16179055806113e6575b611345575b60405197885260208801526040870152606086015262ffffff60e81b16608085015260a084015260c08301527fa8753b9e42907e7ff78a429ab2df45e04a72da466a67865398840536ef9df43860e03393a4005b6040516323b872dd60e01b8152336004820152306024820152604481018990526020816064815f865af19081156107f0575f916113c7575b506112f15760405162461bcd60e51b815260206004820152601960248201527f4552433230207472616e7366657246726f6d206661696c6564000000000000006044820152606490fd5b6113e0915060203d6020116107e9576107db8183611644565b8a61137d565b508715156112ec565b634e487b7160e01b5f52601160045260245ffd5b60405162461bcd60e51b815260206004820152601b60248201527f466961742073796d626f6c206d757374206265203320636861727300000000006044820152606490fd5b60405162461bcd60e51b815260206004820152600c60248201526b496e76616c6964207261746560a01b6044820152606490fd5b60405162461bcd60e51b8152602060048201526015602482015274457870697279206d7573742062652066757475726560581b6044820152606490fd5b60405162461bcd60e51b8152602060048201526014602482015273496e76616c696420636f756e746572706172747960601b6044820152606490fd5b60405162461bcd60e51b815260206004820152600c60248201526b4f666665722065786973747360a01b6044820152606490fd5b60405162461bcd60e51b815260206004820152600b60248201526a24b73b30b634b2103932b360a91b6044820152606490fd5b600435906001600160a01b038216820361010657565b60243590811515820361010657565b1561158857565b60405162461bcd60e51b815260206004820152600f60248201526e10dbdb9d1c9858dd081c185d5cd959608a1b6044820152606490fd5b156115c657565b60405162461bcd60e51b8152602060048201526013602482015272155cd95c881a5cc8189b1858dadb1a5cdd1959606a1b6044820152606490fd5b1561160857565b60405162461bcd60e51b8152602060048201526014602482015273155cd95c881b9bdd081dda1a5d195b1a5cdd195960621b6044820152606490fd5b90601f801991011681019081106001600160401b0382111761166557604052565b634e487b7160e01b5f52604160045260245ffd5b90816020910312610106575180151581036101065790565b1561169857565b60405162461bcd60e51b815260206004820152600a60248201526927b7363c9030b236b4b760b11b6044820152606490fd5b156116d157565b60405162461bcd60e51b815260206004820152601460248201527313d999995c88191bd95cc81b9bdd08195e1a5cdd60621b6044820152606490fd5b1561171457565b60405162461bcd60e51b815260206004820152601f60248201527f5265656e7472616e637947756172643a207265656e7472616e742063616c6c006044820152606490fd5b1561176057565b60405162461bcd60e51b815260206004820152601860248201527f426f7468206d7573742062652077686974656c697374656400000000000000006044820152606490fd5b156117ac57565b60405162461bcd60e51b815260206004820152602260248201527f43616e6e6f742072656c6561736520746f20626c61636b6c697374656420757360448201526132b960f11b6064820152608490fd5b906001600160401b03809116911602906001600160401b0382169182036113ef57565b60405163a9059cbb60e01b81526001600160a01b0392831660048201526024810193909352602091839160449183915f91165af19081156107f0575f916118a6575b501561186957565b60405162461bcd60e51b8152602060048201526015602482015274115490cc8c081d1c985b9cd9995c8819985a5b1959605a1b6044820152606490fd5b6118bf915060203d6020116107e9576107db8183611644565b5f61186156fea2646970667358221220f3e0a372a6e087aed625296ab2f0eca7ff6e0d4e06b679b441f778f7e84ce4db64736f6c634300081c0033",
  "linkReferences": {},
  "deployedLinkReferences": {},
  "immutableReferences": {
    "95": [
      {
        "length": 32,
        "start": 1417
      },
      {
        "length": 32,
        "start": 2098
      },
      {
        "length": 32,
        "start": 2825
      },
      {
        "length": 32,
        "start": 3064
      },
      {
        "length": 32,
        "start": 3856
      },
      {
        "length": 32,
        "start": 4028
      },
      {
        "length": 32,
        "start": 4192
      }
    ]
  },
  "inputSourceName": "project/contracts/TradeEscrowVault.sol",
  "buildInfoId": "solc-0_8_28-e89319af1fbb5b0fec68119cc002d7b8ce7fac8a"
}